:1000000039C0ACC152C051C050C04FC04EC04DC02D
:100010004CC04BC04AC049C048C047C046C045C09C
:1000200044C0090212000101008019090400000007
:100030000000000012011001FF000008C016DC05DE
:100040000401010200010E0355005300420061004B
:10005000730070001C037700770077002E006600A5
:1000600069007300630068006C002E006400650086
:100070000403090411241FBECFE5D2E0DEBFCDBFCB
:1000800010E0A0E6B0E0EAEBF7E102C005900D92C7
:10009000A236B107D9F720E0A2E6B0E001C01D9278
:1000A000AD3AB207E1F71ADB86CBAACFCF93DF9345
:1000B00060918600635067FD14C0209183008CE03E
:1000C00090E0821B9109EC01C657DF4F80918200BE
:1000D0008D3209F465C08091630087FDA7C010923E
:1000E00086008091610084FF3EC0609160006F3F98
:1000F000D1F1693008F47CC0685060936000909141
:10010000760088E889278093760068E08091630014
:1001100087FD1CC0209184003091850086FF7DC042
:10012000A7E7B0E0F901962F84918D933196915015
:10013000D9F78FEF860F90E00196280F391F309383
:10014000850020938400C4E0C60F5DC087E790E07F
:100150005BD9682F893008F4B0C08FEF80936000BE
:10016000CEE1C093610094E180B38C7081F4915032
:10017000D9F710928700109281008091620081303F
:1001800019F0C1E0C0936200DF91CF910895C1E002
:100190009111C0E080916200C817B1F39BDAF2CFF1
:1001A000683009F09CCF83EC809376008AE58093D9
:1001B0006100109263008881807609F041C08A81D5
:1001C00010927F009981911146C0109280002FE714
:1001D00030E082E030938500209384009F8191116C
:1001E00004C09E81981708F4892F8093600077CF10
:1001F000109260009091760088E8892780937600BD
:10020000611184CFC4E087E790E0A4D0CC3009F43A
:10021000A8CF8FEF80936000A4CFD901E7E7F0E08B
:10022000962F8D9181939150E1F783CFCE016CD9B8
:100230008F3F01F1882309F452CF109260004FCF15
:10024000CE01D4D68F3F51F6988197FD17C090E824
:1002500090936300CACF9530E9F0963011F1983051
:1002600079F0993089F081E09A3009F080E02FE749
:1002700030E0B0CF8EE18093610031CF8E81E7CF47
:1002800029E830E081E0A6CF809389002FE730E0B5
:1002900080E0A0CF809387001FDA2FE730E080E076
:1002A00099CF9B819130F1F09230A1F0933041F0E1
:1002B00080E090E49093630091CFC4E0C80FA3CF97
:1002C000811118C080E790E09093850080938400AE
:1002D00084E0EFCF82E290E09093850080938400E9
:1002E00082E1E7CF84E390E09093850080938400DF
:1002F00082E1DFCF813051F08230D1F686E490E0A8
:1003000090938500809384008EE0D3CF84E590E0C5
:1003100090938500809384008CE1CBCF85B7836078
:1003200085BF8BB780648BBF0895A82FB92F80E05D
:1003300090E041E050EA609530E009C02D918227BD
:100340009795879510F084279527305EC8F36F5FE7
:10035000A8F30895EADF8D939D930895CF93CFB7C7
:10036000CF93DF93C395839BE9F7839B0BC0839B5C
:1003700009C0839B07C0839B05C0839B03C0839BED
:1003800001C089C06F93C0918300DD27C657DF4F3E
:100390002F9365E5839B03C02F916F91E6CF0F9359
:1003A0001F934F9320E040E15F9300B30C7003FB79
:1003B00027F93F9350E03BE039C01C7040642F7731
:1003C000012F5F5F1EC0406810B31C702F77525022
:1003D0001FC0406400B32F770C70D1F15F5F00C085
:1003E00023C0406210B32F771C7091F15F5F00C093
:1003F00025C00C701027515012F45D5F00001150A1
:1004000027952C3F10B3C8F61C7001270150279583
:100410002C3FC8F64227499300B30C7010274F7346
:10042000115027952C3FA8F64695469510B31C70A1
:1004300079F00127015027952C3F98F66B5A60F30D
:10044000315000B3B0F600C010E41ABF002717C047
:100450003B503195C31BD04010E41ABF0881033CC8
:10046000F9F00B34E9F0209181001981110F12137A
:10047000EDCF093651F10D3211F0013E39F70093FD
:1004800088003F915F914F911F910F912F916F9134
:10049000CAB7C6FD67CFDF91CF91CFBFCF91189577
:1004A00020918800222369F310918600112339F5E9
:1004B00034303AF13093860020938200109183000B
:1004C0003BE0311B309383001CC00091860001305B
:1004D000B4F40AE53091610034FD14C0009361006A
:1004E000C6E7D0E013C0052710E000C0000002BB43
:1004F0001AC0052710E0221F1DC010E021C04AE5E8
:1005000002C032ED432FC4E1D0E032E011B31C60F1
:10051000939A02B311BB5CE020E865E320FF052756
:1005200002BB279517951C3FF0F66695B8F7B1F713
:1005300020FF052702BB279517951C3FD0F627956E
:10054000179517FF052700001C3F02BBB0F6299145
:100550003A9519F7037F10918700110FC651D040CB
:1005600002BB11F01093810010E41ABF086011B3B0
:10057000137F402F437F54E05A95F1F702BB11BB24
:1005800042BB7FCFDC01CB0121E1B695A7959795C2
:1005900087952A95D1F72091A6002817A9F0809376
:1005A000A6008FEF8ABBA898AB98AC98AD9A8091C3
:1005B000A6008BBBAA9A8AE18A95F1F700C0AA9897
:1005C0008AE18A95F1F700C008959FEF9ABB8BBB33
:1005D000AB9AA898AC988091A400811101C0AD9805
:1005E00085E08A95F1F70000AA9A8AE18A95F1F7E9
:1005F00000C0AA988AE18A95F1F700C00895AB98E7
:10060000A8986623C1F0AC9A9091A400911101C002
:10061000AD989FEF9ABB8BBB8AE18A95F1F700C03A
:10062000AA9A8AE18A95F1F700C0AA988AE18A9588
:10063000F1F700C00895AC98E7CF97988FE39CE955
:100640000197F1F700C00000979A0895AA9A8AE1ED
:100650008A95F1F700C0AA988AE18A95F1F700C05F
:100660000895CF93DF9344E0849FD001112470E07C
:10067000660F771F660F771F1ABA2AE030E0E0E0B6
:10068000F0E0C1E0D0E01EC0A89AAB01092E02C084
:10069000569547950A94E2F740FF24C0A99AAB9A71
:1006A00085E08A95F1F70000AB98C89B08C0AE01C1
:1006B00002C0440F551F9A95E2F7E42BF52B215009
:1006C000310990F055E05A95F1F70000922FAD01F5
:1006D000022E02C0569547950A94E2F740FDD4CF0A
:1006E000A898D3CFA998DBCFCF01969587959695FB
:1006F000879596958795DF91CF91089587EC90E047
:100700000197F1F700C000008FEF9FE006C025E3DE
:100710002A95F1F70000019719F0C89BF8CF0895CA
:1007200097988FE39CE90197F1F700C00000979A32
:1007300008959091A400923008F0089546CF9091CA
:10074000A400923008F008955ACFCF93C82F90910B
:10075000A400923068F068E08CE483DF6C2F8CE0BA
:1007600080DF60E088E67DDF60E08CE6CF9179CFC6
:1007700088E02BDF8091A400823018F460E08C2F99
:100780003EDF1ABAAE988FE99FE00197F1F700C0FB
:10079000000089B3AE9ACF910895CF93979AAA9803
:1007A000A89AAB9A8FE39CE90197F1F700C000008B
:1007B00097988FE39CE90197F1F700C00000CAE029
:1007C000AA9A9AE19A95F1F700C0AA982AE12A9587
:1007D000F1F700C0C150A1F7A998A898AB98AC98C0
:1007E0008FEF99EF20E0815090402040E1F700C06A
:1007F0000000979A8FEF90E722E0815090402040D0
:10080000E1F700C000001092A40080E09EDF8E316E
:1008100009F45BC096988FEF93EC29E081509040EB
:100820002040E1F700C00000A898AB98AC98AF98C2
:10083000AE9897988FEF99EF20E08150904020403C
:10084000E1F700C00000969A8FE39CE90197F1F769
:1008500000C00000979A9FEF29E688E19150204060
:100860008040E1F700C00000AF9AAE9A81E080932B
:10087000A40080E06ADF8E3141F19698AB988FEF4B
:100880008ABBA998A898D89897988FE39CE9019774
:10089000F1F700C00000969A979A9FEF29EF80E049
:1008A000915020408040E1F700C000001ABA8FEC60
:1008B00097E00197F1F700C0000082E08093A40068
:1008C00080E043DFC1E08E3119F08C2FCF91089585
:1008D000C0E08C2FCF910895CF93C82F843048F07B
:1008E0008BEAC89F812D11248695982F990F890F27
:1008F000C81B8091A400823050F164E08CE4B1DE2A
:10090000C13081F0CC23A9F0C230D1F0C33019F04E
:1009100080E0CF91089560E088E7A3DE60E08CE797
:10092000CF919FCE60E088E69CDE60E08CE6CF91C0
:1009300098CE60E08AE795DE60E08EE7CF9191CEB9
:1009400060E08AE68EDE60E08EE6CF918ACE84E0BB
:100950003CDE1ABACC2399F0C130C1F4AC98809136
:10096000A400811123C0AD98AE988FE99FE0019754
:10097000F1F700C0000089B3AE9ACF910895AC9A08
:100980008091A40081110AC0AD9AEECFC23041F42B
:10099000AC988091A400811101C0AD9AAB9AE4CFCC
:1009A000AC9A8091A400811101C0AD98AB98DCCFC6
:1009B000CF93DF93C82FD62F8091A400823078F098
:1009C000C03A09F474C0C83A09F473C0C43A09F4CF
:1009D0004AC0C03E09F45CC0DF91CF910895A99848
:1009E0008091A400C03E09F44DC0823008F480C05C
:1009F00025E32A95F1F70000AB98A89ADBBB85E3C5
:100A00008A95F1F70000AA9A9AE19A95F1F700C049
:100A1000AA982AE12A95F1F700C0C03A09F45FC00C
:100A2000C83A09F455C0C43A31F4AC988091A40096
:100A300081115CC0AD9A85E38A95F1F70000AF980B
:100A40008FE99FE00197F1F700C00000AF9A9FEF98
:100A500021EE84E0915020408040E1F700C000008A
:100A6000DF91CF91089560E48CE4FBDD6D2F8CE283
:100A7000F8DD60E086E6F5DD60E08EE6F2DDDF9130
:100A8000CF913CCE823008F0B3CF80E29EDDB0CF74
:100A900060E28CE4E6DD6D2F8CE2E3DD60E084E66D
:100AA000E0DD60E08CE6DDDDDF91CF9127CE60E414
:100AB000F0CF60E48CE4D5DD6D2F8CE2D2DD60E018
:100AC00084E7CFDD60E08CE7CCDDDF91CF9116CEFF
:100AD000AC9A8091A400811107C0AD98ACCFAC98BE
:100AE0008091A4008823C9F3AB98A5CFAB9AA3CF7C
:100AF00080E46BDD7DCF8091A400823008F0089502
:100B000080E863DDAF988FE193E00197F1F700C0D3
:100B10000000AF9A9FEF22E587E09150204080408F
:100B2000E1F700C000000895089560E88CE499DDC5
:100B300060E084E696DD60E08CE693DDDFCD22B7F1
:100B40009091A70082B7821B8917E0F308958FEF79
:100B500085BB84BB1ABA81B3806C81BBAF9AAE9A55
:100B60001092A60008951ABA14BA9698979881B36D
:100B70008F7381BB08958FEF08958FEF08950DCE89
:100B8000CF92DF92EF92FF926B017C018091A400E3
:100B9000823070F162E08CE464DDC701B6019695A5
:100BA0008795779567958CE05CDDC701B60139E0E4
:100BB00096958795779567953A95D1F78CE151DDB4
:100BC00060E088E64EDD60E0C0FC09C088E649DDF3
:100BD00060E08CE6FF90EF90DF90CF9042CD88E709
:100BE00040DD60E08CE7FF90EF90DF90CF9039CD53
:100BF00082E0EBDCC701B601C5DCD701C60159E0D4
:100C0000B695A795979587955A95D1F72091A40009
:100C1000223090F01ABAC0FE0DC0AC9AAE9885E0B2
:100C20008A95F1F7000089B3AE9AFF90EF90DF90BC
:100C3000CF900895AC98F2CF61E0E1DCD701C60116
:100C4000B695A795979587952091A400223010F727
:100C500060E0D5DCDFCFCF92DF92EF92FF92CF93AF
:100C6000DF931F92CDB7DEB76B017C018091A400AA
:100C7000823080F18091AA0090E02091AB00309109
:100C8000AC008217930709F460C0C0FC0BC040930E
:100C9000A00080E00F90DF91CF91FF90EF90DF9068
:100CA000CF900895C701B60196958795779567957A
:100CB0008CE04983D6DC6091A0008CE2D2DC4981D3
:100CC000642F8CE3CEDC60E08DE7CBDC60E08CE76A
:100CD000C8DCDFCF8091AA0090E02091AB0030917A
:100CE000AC0082179307B9F1C0FED1CFF694E79418
:100CF000D794C7948C2D60E0498381DC4981A89A00
:100D0000AB988091A0008BBBAA9A8AE18A95F1F7F3
:100D100000C0AA988AE18A95F1F700C0AC9A4BBB53
:100D2000AA9A8AE18A95F1F700C0AA988AE18A9581
:100D3000F1F700C0A99A85E08A95F1F70000A9981B
:100D400085E08A95F1F70000A4CF60E18CE4498347
:100D500088DC49819ACF80E1498337DC4981C0FE34
:100D600096CF8091A400823050F6C0CFCF92DF9210
:100D7000EF92FF926B017C018091A400823000F120
:100D8000C701B60129E096958795779567952A95CD
:100D9000D1F78CE166DC60E084E663DC60E08CE641
:100DA00060DC8FEF9CE70197F1F700C0000060E086
:100DB0008CE457DC81E0FF90EF90DF90CF900895B6
:100DC000D701C60139E0B695A795979587953A95CD
:100DD000D1F761E014DCC701B601D4DBAF9885E040
:100DE0008A95F1F70000AF9A8FEF9CE70197F1F732
:100DF00000C00000AB9AA8981BBAAA9A9AE19A95EB
:100E0000F1F700C0AA988AE18A95F1F700C080E066
:100E1000FF90EF90DF90CF9008951F93CF93DF93D3
:100E20001F92CDB7DEB7182F2091A4002230A8F072
:100E300063E08CE4998315DC612F8CE012DC9981EE
:100E4000692F8CE10EDC60E088E60BDC60E08CE66C
:100E50000F90DF91CF911F9104CC83E0B6DB80919E
:100E6000A400823070F01ABAAC98AE9885E08A95EA
:100E7000F1F7000089B3AE9A0F90DF91CF911F91E7
:100E8000089561E0812FBBDB8091A400823058F788
:100E900060E0812FB4DBE7CF1F93CF93DF932091E6
:100EA000A4002230C8F0C62FD92F182F61E18CE49E
:100EB000D8DB612F8CE0D5DB6D2F8CE1D2DB6C2F82
:100EC0008CE2CFDB60E08DE6CCDB60E084E6C9DB62
:100ED00060E08CE6C6DB12DC80E0DF91CF911F91F1
:100EE00008951F93CF93DF93882399F0182FD0E0B4
:100EF000C2B762B76C1B70E080E090E0FDD320E0E9
:100F000030E040EA52E4F2D387FDF3CFDF5FD11344
:100F1000EFCFDF91CF911F910895BD9ABB98C39AEF
:100F200050E217D05A95E9F70895AC0188E605D04C
:100F3000842F03D089E601D0852F0FD028E030E040
:100F4000382780FB869506D02A95D1F730FB02D052
:100F500000D06894BB98C39A16F0C398BB9AE091EE
:100F6000A800F091A9003197F0F7C59AE6B3E3FB2A
:100F7000E091A800F091A9003197F0F7C598089585
:100F800020ECE7DF46F42A95E1F780E02AE1E5DF8F
:100F90002A95E9F7DECF28E030E0DBDF869587F998
:100FA00038272A95D1F7D5DF27F9322772F3D1DF19
:100FB000D0CFDB01742FB9DF84E2BFDFE1DF8D9397
:100FC0007A95D1F70895DB01742FAFDF83EFB5DF9A
:100FD0008DE1B3DF84E6B1DF8D91AFDF82E7ADDF76
:100FE000CFDF8078D9F77A9589F70895FC01918150
:100FF000913089F1923009F4B9C0933009F467C097
:101000009430D1F1973009F486C0953009F450C17D
:10101000963009F4AFC0983009F4F5C0993009F45E
:1010200058C19A3009F487C19B3009F4BAC19C3089
:1010300009F4CCC19D3009F4DEC19E3009F4E0C151
:101040009F3009F457C1903109F47FC19F3709F4EB
:101050009DC180E035C0B39B5BC080916C0065DDB5
:1010600010926B00C09A73DD80E02EE630E0309382
:10107000850020938400089580916B00811112C037
:10108000838190E0982F88272281822B092E000CE3
:10109000AA0BBB0B8093670090936800A093690034
:1010A000B0936A00878190E0982F88272681822B51
:1010B000909366008093650082E080936D008FEFCF
:1010C0002EE630E0309385002093840008958281DD
:1010D000803509F4CDC008F487C0883509F4D7C03D
:1010E0008C3A09F0BBC010926E0080936F00838130
:1010F000809370008481809371008381833509F42B
:10110000D5C0803809F41EC1658152DC84E0D8CF97
:1011100085E00BDDA5CF80916B00811112C083812A
:1011200090E0982F88272281822B092E000CAA0B91
:10113000BB0B8093670090936800A0936900B09305
:101140006A00878190E0982F88272681822B9093D0
:1011500066008093650083E080936D008FEF2EE63C
:1011600030E030938500209384000895FCDCC09823
:1011700080E0A6CF80916B00811112C0838190E046
:10118000982F88272281822B092E000CAA0BBB0BDB
:101190008093670090936800A0936900B0936A0001
:1011A00034812581822F8F7080936400822F807F0D
:1011B00040E1849FC0011124830F911D9093AC00E6
:1011C0008093AB0020FD8093AA00878190E0982F48
:1011D00088272681822B909366008093650081E0AA
:1011E00080936D008FEF6CCF8033C1F510926E004D
:1011F00080936F001092700084818370A6DA8093D0
:10120000710084E05DCF80916B00811112C08381F9
:1012100090E0982F88272281822B092E000CAA0BA0
:10122000BB0B8093670090936800A0936900B09314
:101230006A001092AC001092AB001092640087819B
:1012400090E0982F88272681822B909366008093C8
:10125000650084E080936D008FEF32CF10926E00B6
:1012600010926F00109270001092710084E028CFED
:10127000938110926E0080936F00109270009830EE
:10128000E1F081E029DB8093710084E019CF938144
:1012900010926E0080936F0010927000983099F059
:1012A00083E01ADB8093710084E00ACF84E008CFEA
:1012B00066DC80936E0081E003CF82E00DDB8093DB
:1012C000710084E0FDCE80E007DB8093710084E054
:1012D000F7CE81E080936B0082819381A481B581F8
:1012E0008093670090936800A0936900B0936A00B0
:1012F00080E0E6CE838190E0982F88272281822BA0
:10130000092E000CAA0BBB0B80936700909368001A
:10131000A0936900B0936A00878190E0982F882796
:101320002681822B909366008093650085E08093F0
:101330006D008FEFC5CE828180936C0010926E009D
:1013400081E0BECED8DB84E0BBCE838190E0982FD5
:1013500088272281822B092E000CAA0BBB0B8093BD
:10136000670090936800A0936900B0936A0087813A
:1013700090E0982F88272681822B90936600809397
:10138000650086E080936D008FEF9ACE81E08093B8
:101390006E0010926F00109270001092710084E045
:1013A0008FCE838190E0982F88272281822B909383
:1013B000A9008093A800C49ABC9A83E092DDC498E7
:1013C000C09A80E18EDDA9DD80E07ACE80ECB5DDCB
:1013D00080E0B3DD8AE085DDC49A85E082DDC498D3
:1013E00085E07FDD87B38F7487BB88B38F7488BB3C
:1013F000C09880E065CEC4DD80936E0081E060CE51
:1014000082819BDD80E05CCEFF920F931F93CF9390
:10141000DF93582F792FF62E20916D003EEF320F7B
:10142000323050F0253009F452C08FEFDF91CF9168
:101430001F910F91FF900895662309F43FC080919A
:10144000670090916800A0916900B0916A00052F33
:10145000172F3FEF360FE801C30FD11D1DC0DDDC94
:10146000F80180838091670090916800A0916900E5
:10147000B0916A000196A11DB11D80936700909301
:101480006800A0936900B0936A000C171D0761F013
:1014900020916D000F5F1F4F223009F7BC01CD0175
:1014A0006FDBF8018083DECFF7E0FF1538F48F2D76
:1014B000DF91CF911F910F91FF90089510926D00D1
:1014C0008F2DDF91CF911F910F91FF900895462F9F
:1014D000682F80916700909168006BDD80916700B4
:1014E00090916800A0916900B0916A008F0D911DE4
:1014F000A11DB11D8093670090936800A0936900BF
:10150000B0936A008F2D92CFFF920F931F93CF93CA
:10151000DF93382F792F162F20916D00213061F045
:10152000243051F0263009F494C08FEFDF91CF9131
:101530001F910F91FF900895112309F482C08091AB
:10154000670090916800A0916900B0916A00C32F74
:10155000D72F1150AE01410F511D8A01F12C4DC002
:101560002091AB003091AC00232B09F04FC021E05B
:101570004881BC01CD016FDB209165003091660090
:10158000215031093093660020936500232BE1F44C
:1015900010926D008091640081FF35C08091AA0097
:1015A00090E02091AB003091AC008217930759F185
:1015B00060916700709168008091690090916A0065
:1015C0004881D4DBFF24F3948091670090916800F8
:1015D000A0916900B0916A000196A11DB11D809390
:1015E000670090936800A0936900B0936A00C017E9
:1015F000D10741F120916D002196213009F4B0CF3F
:1016000068814ADCB9CFFF24F394DECF20E0488123
:10161000BC01CD0120DB8091AA0081508093AA00FB
:101620008111AACF60916700709168008091690074
:1016300090916A0048819ADB8091AB008093AA0068
:101640009BCFF12C8F2DDF91CF911F910F91FF90A8
:101650000895462F682F8091670090916800B3DC51
:101660008091670090916800A0916900B0916A0034
:10167000810F911DA11DB11D80936700909368009B
:10168000A0936900B0936A00809165009091660014
:10169000811B91099093660080936500892B21F44A
:1016A00010926D0081E042CF80E040CF88B38C7F04
:1016B00088BB8B9A8FEFA895EFE9FFE03197F1F7A0
:1016C00000C000008150B9F78B9887B3836087BB57
:1016D000C39A0895C1980895C19A08951FD6E6DF68
:1016E00083E083BF7894E2D4E1D4FDCF40D008F406
:1016F00081E00895E89409C097FB3EF490958095A9
:10170000709561957F4F8F4F9F4F9923A9F0F92FC7
:1017100096E9BB279395F695879577956795B79545
:10172000F111F8CFFAF4BB0F11F460FF1BC06F5F2B
:101730007F4F8F4F9F4F16C0882311F096E911C03D
:10174000772321F09EE8872F762F05C0662371F05E
:1017500096E8862F70E060E02AF09A95660F771F72
:10176000881FDAF7880F9695879597F90895990F4E
:101770000008550FAA0BE0E8FEEF16161706E8075B
:10178000F907C0F012161306E407F50798F0621B7C
:10179000730B840B950B39F40A2661F0232B242B51
:1017A000252B21F408950A2609F4A140A6958FEF70
:0A17B000811D811D0895F894FFCFFC
:0217BA00FF5AD4
:00000001FF
