:100000000C9453000C94D1010C9470000C9470006B
:100010000C9470000C9470000C9470000C947000A0
:100020000C9470000C9470000C9470000C94700090
:100030000C9470000C9470000C9470000C94700080
:100040000C9470000C9470000C9470000C94700070
:100050000C947000090212000101008019090400CB
:1000600000000000000012011001FF000008C0168F
:10007000DC050401010200010E035500530042009B
:100080006100730070001C037700770077002E007A
:10009000660069007300630068006C002E00640055
:1000A00065000403090411241FBECFE5D8E0DEBFBC
:1000B000CDBF10E0A0E6B0E0E4EFF8E102C00590AB
:1000C0000D92A236B107D9F720E0A2E6B0E001C058
:1000D0001D92AD3AB207E1F70E94080C0C94780C1F
:1000E0000C940000CF93DF9360918600635067FD0E
:1000F00014C0209183008CE090E0821B9109EC01F8
:10010000C657DF4F809182008D3209F468C080911C
:10011000630087FDABC0109286008091610084FF70
:1001200040C0609160006F3F09F43BC0693008F443
:100130007EC06850609360009091760088E88927BF
:100140008093760068E08091630087FD1CC0209159
:1001500084003091850086FF80C0A7E7B0E0F901F8
:10016000962F84918D9331969150D9F78FEF860F0A
:1001700090E00196280F391F30938500209384006A
:10018000C4E0C60F5FC087E790E00E94950A682F21
:10019000893008F4B5C08FEF80936000CEE1C09342
:1001A000610094E180B38C7081F49150D9F7109282
:1001B00087001092810080916200813019F0C1E0C7
:1001C000C0936200DF91CF910895C1E09111C0E02A
:1001D00080916200C817B1F30E94040CF1CF68301F
:1001E00009F099CF83EC809376008AE580936100D3
:1001F000109263008881807609F043C08A81109252
:100200007F009981911149C0109280002FE730E062
:1002100082E030938500209384009F81911104C077
:100220009E81981708F4892F8093600074CF1092F4
:1002300060009091760088E88927809376006111AC
:1002400082CFC4E087E790E00E94CD01CC3009F472
:10025000A6CF8FEF80936000A2CFD901E7E7F0E04F
:10026000962F8D9181939150E1F780CFCE010E941E
:10027000180B8F3F09F1882309F44DCF10926000CD
:100280004ACFCE010E9471088F3F39F6988197FDC1
:1002900017C090E890936300C7CF9530E9F096308F
:1002A00019F1983079F0993089F081E09A3009F0AD
:1002B00080E02FE730E0ADCF8EE1809361002BCF5F
:1002C0008E81E7CF29E830E081E0A3CF80938900D9
:1002D0002FE730E080E09DCF809387000E94060CDE
:1002E0002FE730E080E095CF9B819130F1F09230A4
:1002F000A1F0933041F080E090E4909363008DCFC3
:10030000C4E0C80F9FCF811118C082EA90E090939B
:1003100085008093840084E0EFCF84E590E09093A3
:1003200085008093840082E1E7CF86E690E0909399
:1003300085008093840082E1DFCF813051F08230EC
:10034000D1F688E790E090938500809384008EE05A
:10035000D3CF86E890E090938500809384008CE171
:10036000CBCF85B7836085BF8BB780648BBF089583
:10037000A82FB92F80E090E041E050EA609530E08E
:1003800009C02D9182279795879510F0842795278E
:10039000305EC8F36F5FA8F30895EADF8D939D93F5
:1003A0000895CF93CFB7CF93DF93C395839BE9F79E
:1003B000839B0BC0839B09C0839B07C0839B05C0A5
:1003C000839B03C0839B01C089C06F93C09183004E
:1003D000DD27C657DF4F2F9365E5839B03C02F9121
:1003E0006F91E6CF0F931F934F9320E040E15F930F
:1003F00000B30C7003FB27F93F9350E03BE039C09A
:100400001C7040642F77012F5F5F1EC0406810B3DF
:100410001C702F7752501FC0406400B32F770C70B0
:10042000D1F15F5F00C023C0406210B32F771C7012
:1004300091F15F5F00C025C00C701027515012F47D
:100440005D5F0000115027952C3F10B3C8F61C705B
:100450000127015027952C3FC8F64227499300B346
:100460000C7010274F73115027952C3FA8F6469516
:10047000469510B31C7079F00127015027952C3F49
:1004800098F66B5A60F3315000B3B0F600C010E438
:100490001ABF002717C03B503195C31BD04010E452
:1004A0001ABF0881033CF9F00B34E9F02091810078
:1004B0001981110F1213EDCF093651F10D3211F0E0
:1004C000013E39F7009388003F915F914F911F9152
:1004D0000F912F916F91CAB7C6FD67CFDF91CF9172
:1004E000CFBFCF91189520918800222369F31091F6
:1004F0008600112339F534303AF130938600209389
:100500008200109183003BE0311B309383001CC0BC
:10051000009186000130B4F40AE53091610034FDA9
:1005200014C000936100C6E7D0E013C0052710E0B7
:1005300000C0000002BB1AC0052710E0221F1DC02A
:1005400010E021C04AE502C032ED432FC4E1D0E003
:1005500032E011B31C60939A02B311BB5CE020E857
:1005600065E320FF052702BB279517951C3FF0F692
:100570006695B8F7B1F720FF052702BB27951795B9
:100580001C3FD0F62795179517FF052700001C3F45
:1005900002BBB0F629913A9519F7037F10918700B5
:1005A000110FC651D04002BB11F01093810010E42E
:1005B0001ABF086011B3137F402F437F54E05A9550
:1005C000F1F702BB11BB42BB7FCFDC01CB0121E1C4
:1005D000B695A795979587952A95D1F72091A6006E
:1005E0002817A9F08093A6008FEF8ABBA898AB9834
:1005F000AC98AD9A8091A6008BBBAA9A8AE18A95A5
:10060000F1F700C0AA988AE18A95F1F700C0089531
:100610009FEF9ABB8BBBAB9AA898AC988091A40033
:10062000811101C0AD9885E08A95F1F70000AA9A82
:100630008AE18A95F1F700C0AA988AE18A95F1F7D4
:1006400000C00895AB98A8986623C1F0AC9A909129
:10065000A400911101C0AD989FEF9ABB8BBB8AE1BA
:100660008A95F1F700C0AA9A8AE18A95F1F700C04D
:10067000AA988AE18A95F1F700C00895AC98E7CF6F
:1006800097988FE39CE90197F1F700C00000979AD3
:100690000895AA9A8AE18A95F1F700C0AA988AE19A
:1006A0008A95F1F700C00895CF93DF9344E0849FCB
:1006B000D001112470E0660F771F660F771F1ABAFA
:1006C0002AE030E0E0E0F0E0C1E0D0E01EC0A89A0F
:1006D000AB01092E02C0569547950A94E2F740FFF8
:1006E00024C0A99AAB9A85E08A95F1F70000AB98EF
:1006F000C89B08C0AE0102C0440F551F9A95E2F78F
:10070000E42BF52B2150310990F055E05A95F1F783
:100710000000922FAD01022E02C0569547950A9413
:10072000E2F740FDD4CFA898D3CFA998DBCFCF0173
:10073000969587959695879596958795DF91CF9114
:10074000089587EC90E00197F1F700C000008FEF6B
:100750009FE006C025E32A95F1F70000019719F004
:10076000C89BF8CF089597988FE39CE90197F1F71C
:1007700000C00000979A08959091A400923008F06C
:1007800008950C9408039091A400923008F0089505
:100790000C942203CF93C82F9091A400923088F03C
:1007A00068E08CE40E9454036C2F8CE00E94540398
:1007B00060E088E60E94540360E08CE6CF910C94E0
:1007C000540388E00E9408038091A400823020F442
:1007D00060E08C2F0E9422031ABAAE988FE99FE046
:1007E0000197F1F700C0000089B3AE9ACF91089548
:1007F000CF93979AAA98A89AAB9A8FE39CE901970E
:10080000F1F700C0000097988FE39CE90197F1F79A
:1008100000C00000CAE0AA9A9AE19A95F1F700C0D8
:10082000AA982AE12A95F1F700C0C150A1F7A9982A
:10083000A898AB98AC988FEF99EF20E0815090404A
:100840002040E1F700C00000979A8FEF90E722E088
:10085000815090402040E1F700C000001092A400B9
:1008600080E00E94CA038E3109F45DC096988FEF34
:1008700093EC29E0815090402040E1F700C0000057
:10088000A898AB98AC98AF98AE9897988FEF99EFDF
:1008900020E0815090402040E1F700C00000969A8F
:1008A0008FE39CE90197F1F700C00000979A9FEF52
:1008B00029E688E1915020408040E1F700C0000027
:1008C000AF9AAE9A81E08093A40080E00E94CA03B0
:1008D0008E3149F19698AB988FEF8ABBA998A8986A
:1008E000D89897988FE39CE90197F1F700C0000032
:1008F000969A979A9FEF29EF80E091502040804090
:10090000E1F700C000001ABA8FEC97E00197F1F709
:1009100000C0000082E08093A40080E00E94CA032F
:10092000C1E08E3119F08C2FCF910895C0E08C2F4B
:10093000CF910895CF93C82F843048F08BEAC89F99
:10094000812D11248695982F990F890FC81B8091AE
:10095000A400823098F164E08CE40E945403C1301A
:1009600091F0CC23C9F0C23001F1C33019F080E01E
:10097000CF91089560E088E70E94540360E08CE71F
:10098000CF910C94540360E088E60E94540360E029
:100990008CE6CF910C94540360E08AE70E945403E4
:1009A00060E08EE7CF910C94540360E08AE60E94E9
:1009B000540360E08EE6CF910C94540384E00E94CF
:1009C00008031ABACC2399F0C130C1F4AC988091D5
:1009D000A400811123C0AD98AE988FE99FE00197E4
:1009E000F1F700C0000089B3AE9ACF910895AC9A98
:1009F0008091A40081110AC0AD9AEECFC23041F4BB
:100A0000AC988091A400811101C0AD9AAB9AE4CF5B
:100A1000AC9A8091A400811101C0AD98AB98DCCF55
:100A2000CF93DF93C82FD62F8091A400823078F027
:100A3000C03A09F47FC0C83A09F47EC0C43A09F448
:100A40004AC0C03E09F462C0DF91CF910895A998D1
:100A50008091A400C03E09F452C0823008F490C0D6
:100A600025E32A95F1F70000AB98A89ADBBB85E354
:100A70008A95F1F70000AA9A9AE19A95F1F700C0D9
:100A8000AA982AE12A95F1F700C0C03A09F46FC08C
:100A9000C83A09F465C0C43A31F4AC988091A40016
:100AA00081116CC0AD9A85E38A95F1F70000AF988B
:100AB0008FE99FE00197F1F700C00000AF9A9FEF28
:100AC00021EE84E0915020408040E1F700C000001A
:100AD000DF91CF91089560E48CE40E9454036D2F60
:100AE0008CE20E94540360E086E60E94540360E0BA
:100AF0008EE60E945403DF91CF910C94A1038230C3
:100B000008F0AECF80E20E940803AACF60E28CE436
:100B10000E9454036D2F8CE20E94540360E084E62F
:100B20000E94540360E08CE60E945403DF91CF9151
:100B30000C94A10360E4EBCF60E48CE40E945403C6
:100B40006D2F8CE20E94540360E084E70E945403FE
:100B500060E08CE70E945403DF91CF910C94A103D5
:100B6000AC9A8091A400811107C0AD989CCFAC983D
:100B70008091A4008823C9F3AB9895CFAB9A93CF0B
:100B800080E40E9408036CCF8091A400823008F0BA
:100B9000089580E80E940803AF988FE193E00197E1
:100BA000F1F700C00000AF9A9FEF22E587E0915077
:100BB00020408040E1F700C000000895089560E8FB
:100BC0008CE40E94540360E084E60E94540360E0D9
:100BD0008CE60E9454030C94A10322B79091A700C5
:100BE00082B7821B8917E0F308958FEF85BB84BB22
:100BF0001ABA81B3806C81BBAF9AAE9A1092A600EC
:100C000008951ABA14BA9698979881B38F7381BBD6
:100C100008958FEF08958FEF08950C94F803CF9205
:100C2000DF92EF92FF926B017C018091A4008230F1
:100C3000B0F162E08CE40E945403C701B6019695BE
:100C40008795779567958CE00E945403C701B6019C
:100C500039E096958795779567953A95D1F78CE128
:100C60000E94540360E088E60E94540360E0C0FCE8
:100C70000BC088E60E94540360E08CE6FF90EF9082
:100C8000DF90CF900C94540388E70E94540360E0F7
:100C90008CE7FF90EF90DF90CF900C94540382E0AC
:100CA0000E940803C701B6010E94E502D701C601F0
:100CB00059E0B695A795979587955A95D1F72091C4
:100CC000A400223090F01ABAC0FE0DC0AC9AAE98C3
:100CD00085E08A95F1F7000089B3AE9AFF90EF9016
:100CE000DF90CF900895AC98F2CF61E00E9422038C
:100CF000D701C601B695A795979587952091A40031
:100D0000223008F760E00E942203DDCFCF92DF920D
:100D1000EF92FF92CF93DF931F92CDB7DEB76B01B7
:100D20007C018091A4008230A8F18091AA0090E01B
:100D30002091AB003091AC008217930709F466C094
:100D4000C0FC0BC04093A00080E00F90DF91CF91DA
:100D5000FF90EF90DF90CF900895C701B601969570
:100D60008795779567958CE049830E94540360913D
:100D7000A0008CE20E9454034981642F8CE30E94FE
:100D8000540360E08DE70E94540360E08CE70E940A
:100D90005403DACF8091AA0090E02091AB0030910B
:100DA000AC0082179307C9F1C0FECCCFF694E7944C
:100DB000D794C7948C2D60E049830E942203498117
:100DC000A89AAB988091A0008BBBAA9A8AE18A95D9
:100DD000F1F700C0AA988AE18A95F1F700C0AC9AB1
:100DE0004BBBAA9A8AE18A95F1F700C0AA988AE1DA
:100DF0008A95F1F700C0A99A85E08A95F1F700007D
:100E0000A99885E08A95F1F700009ECF60E18CE417
:100E100049830E945403498193CF80E149830E9412
:100E200008034981C0FE8ECF8091A400823040F635
:100E3000BDCFCF92DF92EF92FF926B017C01809148
:100E4000A400823020F1C701B60129E0969587956C
:100E5000779567952A95D1F78CE10E94540360E05D
:100E600084E60E94540360E08CE60E9454038FEFF6
:100E70009CE70197F1F700C0000060E08CE40E945D
:100E8000540381E0FF90EF90DF90CF900895D70159
:100E9000C60139E0B695A795979587953A95D1F70C
:100EA00061E00E942203C701B6010E94E502AF98EB
:100EB00085E08A95F1F70000AF9A8FEF9CE70197E4
:100EC000F1F700C00000AB9AA8981BBAAA9A9AE161
:100ED0009A95F1F700C0AA988AE18A95F1F700C0C7
:100EE00080E0FF90EF90DF90CF9008951F93CF9315
:100EF000DF931F92CDB7DEB7182F2091A4002230C8
:100F0000D0F063E08CE499830E945403612F8CE05D
:100F10000E9454039981692F8CE10E94540360E080
:100F200088E60E94540360E08CE60F90DF91CF9139
:100F30001F910C94540383E00E9408038091A40045
:100F4000823070F01ABAAC98AE9885E08A95F1F7C5
:100F5000000089B3AE9A0F90DF91CF911F91089551
:100F600061E0812F0E9422038091A400823050F71B
:100F700060E0812F0E942203E5CF1F93CF93DF9380
:100F80002091A400223008F1C62FD92F182F61E13B
:100F90008CE40E945403612F8CE00E9454036D2F57
:100FA0008CE10E9454036C2F8CE20E94540360E099
:100FB0008DE60E94540360E084E60E94540360E0E2
:100FC0008CE60E9454030E94A10380E0DF91CF9140
:100FD0001F9108951F93CF93DF938823A9F0182FB3
:100FE000D0E0C2B762B76C1B70E080E090E00E9476
:100FF000190C20E030E040EA52E40E94120C87FD18
:10100000F1CFDF5FD113EDCFDF91CF911F91089525
:10101000BD9ABB98C39A50E217D05A95E9F7089544
:10102000AC0188E605D0842F03D089E601D0852F56
:101030000FD028E030E0382780FB869506D02A952F
:10104000D1F730FB02D000D06894BB98C39A16F059
:10105000C398BB9AE091A800F091A9003197F0F7EE
:10106000C59AE6B3E3FBE091A800F091A90031979F
:10107000F0F7C598089520ECE7DF46F42A95E1F7EC
:1010800080E02AE1E5DF2A95E9F7DECF28E030E0CD
:10109000DBDF869587F938272A95D1F7D5DF27F941
:1010A000322772F3D1DFD0CFDB01742FB9DF84E2B6
:1010B000BFDFE1DF8D937A95D1F70895DB01742FBF
:1010C000AFDF83EFB5DF8DE1B3DF84E6B1DF8D9174
:1010D000AFDF82E7ADDFCFDF8078D9F77A9589F788
:1010E0000895FC019181913089F1923009F4BDC0DD
:1010F000933009F469C09430E1F1973009F48AC063
:10110000953009F458C1963009F4B4C0983009F408
:10111000FBC0993009F463C19A3009F492C19B3045
:1011200009F4C6C19C3009F4DBC19D3009F4F2C159
:101130009E3009F4F5C19F3009F462C1903109F481
:101140008BC19F3709F4A9C180E037C0B39B5EC053
:1011500080916C000E94DF0510926B00C09A0E9483
:10116000F50580E02EE630E0309385002093840082
:10117000089580916B00811112C0838190E0982FB7
:1011800088272281822B092E000CAA0BBB0B80938F
:10119000670090936800A0936900B0936A0087810C
:1011A00090E0982F88272681822B90936600809369
:1011B000650082E080936D008FEF2EE630E0309383
:1011C00085002093840008958281803509F4D1C080
:1011D00008F48AC0883509F4DCC08C3A09F0BFC035
:1011E00010926E0080936F008381809370008481E1
:1011F000809371008381833509F4DBC0803809F462
:1012000027C165810E94100584E0D7CF85E00E9448
:10121000DF05A2CF80916B00811112C0838190E025
:10122000982F88272281822B092E000CAA0BBB0B3A
:101230008093670090936800A0936900B0936A0060
:10124000878190E0982F88272681822B90936600D3
:101250008093650083E080936D008FEF2EE630E091
:10126000309385002093840008950E940106C09861
:1012700080E0A3CF80916B00811112C0838190E048
:10128000982F88272281822B092E000CAA0BBB0BDA
:101290008093670090936800A0936900B0936A0000
:1012A00034812581822F8F7080936400822F807F0C
:1012B00040E1849FC0011124830F911D9093AC00E5
:1012C0008093AB0020FD8093AA00878190E0982F47
:1012D00088272681822B909366008093650081E0A9
:1012E00080936D008FEF69CF8033C9F510926E0047
:1012F00080936F0010927000848183700E94CA03F3
:101300008093710084E059CF80916B00811112C0ED
:10131000838190E0982F88272281822B092E000C50
:10132000AA0BBB0B8093670090936800A0936900A1
:10133000B0936A001092AC001092AB00109264005F
:10134000878190E0982F88272681822B90936600D2
:101350008093650084E080936D008FEF2ECF109214
:101360006E0010926F00109270001092710084E075
:1013700024CF938110926E0080936F0010927000C2
:101380009830F9F081E00E949A048093710084E023
:1013900014CF938110926E0080936F0010927000B2
:1013A0009830B1F083E00E949A048093710084E049
:1013B00004CF84E002CF0E940D0680936E0081E08E
:1013C000FCCE82E00E949A048093710084E0F5CE06
:1013D00080E00E949A048093710084E0EECE81E068
:1013E00080936B0082819381A481B5818093670093
:1013F00090936800A0936900B0936A0080E0DDCE0E
:10140000838190E0982F88272281822B092E000C5F
:10141000AA0BBB0B8093670090936800A0936900B0
:10142000B0936A00878190E0982F88272681822BCD
:10143000909366008093650085E080936D008FEF48
:10144000BCCE828180936C0010926E0081E0B5CE9C
:101450000E94C40584E0B1CE838190E0982F882754
:101460002281822B092E000CAA0BBB0B80936700F4
:1014700090936800A0936900B0936A00878190E020
:10148000982F88272681822B909366008093650091
:1014900086E080936D008FEF90CE81E080936E00A8
:1014A00010926F00109270001092710084E085CE4F
:1014B000838190E0982F88272281822B9093A90026
:1014C0008093A800C49ABC9A83E00E94EA07C4985B
:1014D000C09A80E10E94EA070E94080880E06DCE71
:1014E00080EC0E94180880E00E9418088AE00E94A0
:1014F000EA07C49A85E00E94EA07C49885E00E9442
:10150000EA0787B38F7487BB88B38F7488BBC09892
:1015100080E053CE0E943B0880936E0081E04DCE68
:1015200082810E94180880E048CEFF920F931F939B
:10153000CF93DF93582F792FF62E20916D003EEF39
:10154000320F323050F0253009F454C08FEFDF9164
:10155000CF911F910F91FF900895662309F441C028
:101560008091670090916800A0916900B0916A0035
:10157000052F172F3FEF360FE801C30FD11D1EC0F7
:101580000E947607F801808380916700909168003F
:10159000A0916900B0916A000196A11DB11D8093D0
:1015A000670090936800A0936900B0936A000C17DD
:1015B0001D0769F020916D000F5F1F4F223001F76A
:1015C000BC01CD010E940F06F8018083DDCFF7E05A
:1015D000FF1538F48F2DDF91CF911F910F91FF9060
:1015E000089510926D008F2DDF91CF911F910F9173
:1015F000FF900895462F682F8091670090916800B2
:101600000E9454088091670090916800A091690041
:10161000B0916A008F0D911DA11DB11D80936700CF
:1016200090936800A0936900B0936A008F2D8FCFCC
:10163000FF920F931F93CF93DF93382F792F162F9D
:1016400020916D00213061F0243051F0263009F4F2
:1016500099C08FEFDF91CF911F910F91FF90089567
:10166000112309F487C08091670090916800A091D0
:101670006900B0916A00C32FD72F1150AE01410FFE
:10168000511D8A01F12C4FC02091AB003091AC006C
:10169000232B09F052C021E04881BC01CD010E94FA
:1016A0008606209165003091660021503109309303
:1016B000660020936500232BE9F410926D00809161
:1016C000640081FF37C08091AA0090E02091AB00B8
:1016D0003091AC008217930769F1609167007091B7
:1016E00068008091690090916A0048810E94190702
:1016F000FF24F3948091670090916800A0916900A5
:10170000B0916A000196A11DB11D8093670090936E
:101710006800A0936900B0936A00C017D10759F11F
:1017200020916D002196213009F4AECF68810E948E
:10173000BD07B7CFFF24F394DDCF20E04881BC0183
:10174000CD010E9486068091AA0081508093AA0054
:101750008111A7CF60916700709168008091690046
:1017600090916A0048810E9419078091AB00809394
:10177000AA0097CFF12C8F2DDF91CF911F910F9160
:10178000FF900895462F682F809167009091680020
:101790000E945E088091670090916800A0916900A6
:1017A000B0916A00810F911DA11DB11D809367004A
:1017B00090936800A0936900B0936A0080916500DF
:1017C00090916600811B910990936600809365005B
:1017D000892B21F410926D0081E03CCF80E03ACF5C
:1017E00088B38C7F88BB8B9A8FEFA895EFE9FFE0D9
:1017F0003197F1F700C000008150B9F78B9887B39B
:10180000836087BBC39A0895C1980895C19A0895CB
:101810000E94B1010E94F00B83E083BF78940E9484
:101820007200FDCF0E94540C08F481E00895E89402
:1018300009C097FB3EF490958095709561957F4F18
:101840008F4F9F4F9923A9F0F92F96E9BB279395C6
:10185000F695879577956795B795F111F8CFFAF4D6
:10186000BB0F11F460FF1BC06F5F7F4F8F4F9F4F07
:1018700016C0882311F096E911C0772321F09EE865
:10188000872F762F05C0662371F096E8862F70E0CB
:1018900060E02AF09A95660F771F881FDAF7880FA5
:1018A0009695879597F90895990F0008550FAA0BFB
:1018B000E0E8FEEF16161706E807F907C0F0121663
:1018C0001306E407F50798F0621B730B840B950B66
:1018D00039F40A2661F0232B242B252B21F40895BB
:1018E0000A2609F4A140A6958FEF811D811D089558
:0418F000F894FFCF9A
:0218F400FF5A99
:00000001FF
