:100000000C949B000C941D020C94BC000C94BC003E
:100010000C94BC000C94BC000C94BC000C94BC0070
:100020000C94BC000C94BC000C94BC000C94BC0060
:100030000C94BC000C94BC000C94BC000C94BC0050
:100040000C94BC000C94BC000C94BC000C94BC0040
:100050000C94BC000C94BC000C94BC000C94BC0030
:100060000C94BC000C94BC000C94BC000C94BC0020
:100070000C94BC000C94BC000C94BC000C94BC0010
:100080000C94BC000C94BC000C94BC000C94BC0000
:100090000C94BC000C94BC000C94BC000C94BC00F0
:1000A0000C94BC000C94BC000C94BC000C94BC00E0
:1000B0000C94BC000C94BC000C94BC000C94BC00D0
:1000C0000C94BC000C94BC000C94BC000C94BC00C0
:1000D0000C94BC000C94BC000C94BC000C94BC00B0
:1000E0000C94BC00090212000101008019090400EF
:1000F00000000000000012011001FF000008C016FF
:10010000DC050401010200010E035500530042000A
:100110006100730070001C037700770077002E00E9
:10012000660069007300630068006C002E006400C4
:1001300065000403090411241FBECFEFD1E2DEBF26
:10014000CDBF00E00CBF12E0A0E0B2E0ECE8F9E1C6
:1001500000E00BBF02C007900D92A230B107D9F7A3
:1001600022E0A2E0B2E001C01D92AD34B207E1F797
:100170000E94540C0C94C40C0C940000CF93DF9399
:1001800060912602635067FD14C0209123028CE029
:1001900090E0821B9109EC01C65DDD4F8091220247
:1001A0008D3209F468C08091030287FDABC01092C4
:1001B00026028091010284FF40C0609100026F3FDF
:1001C00009F43BC0693008F47EC0685060930002B7
:1001D0009091160288E889278093160268E0809142
:1001E000030287FD1CC0209124023091250286FF66
:1001F00080C0A7E1B2E0F901962F84918D933196EA
:100200009150D9F78FEF860F90E00196280F391F94
:100210003093250220932402C4E0C60F5FC087E11B
:1002200092E00E94E10A682F893008F4B5C08FEF90
:1002300080930002CEE1C093010294E189B18C70F9
:1002400081F49150D9F710922702109221028091E7
:100250000202813019F0C1E0C0930202DF91CF9118
:100260000895C1E09111C0E080910202C817B1F376
:100270000E94500CF1CF683009F099CF83EC809345
:1002800016028AE58093010210920302888180762B
:1002900009F043C08A8110921F029981911149C0CF
:1002A000109220022FE132E082E030932502209369
:1002B00024029F81911104C09E81981708F4892F10
:1002C0008093000274CF109200029091160288E889
:1002D000892780931602611182CFC4E087E192E002
:1002E0000E941902CC3009F4A6CF8FEF8093000250
:1002F000A2CFD901E7E1F2E0962F8D918193915041
:10030000E1F780CFCE010E94640B8F3F09F1882373
:1003100009F44DCF109200024ACFCE010E94BD08D1
:100320008F3F39F6988197FD17C090E890930302AC
:10033000C7CF9530E9F0963019F1983079F09930BF
:1003400089F081E09A3009F080E02FE132E0ADCF12
:100350008EE1809301022BCF8E81E7CF29E232E03C
:1003600081E0A3CF809329022FE132E080E09DCF8E
:10037000809327020E94520C2FE132E080E095CF5B
:100380009B819130F1F09230A1F0933041F080E008
:1003900090E4909303028DCFC4E0C80F9FCF8111EA
:1003A00018C082E391E0909325028093240284E0B8
:1003B000EFCF84EE90E0909325028093240282E1B7
:1003C000E7CF86EF90E0909325028093240282E1AC
:1003D000DFCF813051F08230D1F688E091E0909308
:1003E0002502809324028EE0D3CF86E191E09093A2
:1003F0002502809324028CE1CBCFE9E6F0E08081F6
:1004000083608083E89A0895A82FB92F80E090E058
:1004100041E050EA609530E009C02D918227979520
:10042000879510F084279527305EC8F36F5FA8F397
:100430000895EADF8D939D930895CF93CFB7CF931F
:10044000DF93C3954B9BE9F74B9B0BC04B9B09C0BC
:100450004B9B07C04B9B05C04B9B03C04B9B01C0F4
:1004600089C06F93C0912302DD27C65DDD4F2F93B6
:1004700065E54B9B03C02F916F91E6CF0F931F93C0
:100480004F9320E040E15F9309B10C7003FB27F923
:100490003F9350E03BE039C01C7040642F77012F40
:1004A0005F5F1EC0406819B11C702F7752501FC08B
:1004B000406409B12F770C70D1F15F5F00C023C099
:1004C000406219B12F771C7091F15F5F00C025C0A9
:1004D0000C701027515012F45D5F000011502795E9
:1004E0002C3F19B1C8F61C700127015027952C3FED
:1004F000C8F64227499309B10C7010274F73115069
:1005000027952C3FA8F64695469519B11C7079F0B1
:100510000127015027952C3F98F66B5A60F3315014
:1005200009B1B0F600C011E01CBB002717C03B505A
:100530003195C31BD04011E01CBB0881033CF9F08E
:100540000B34E9F0209121021981110F1213EDCF24
:10055000093651F10D3211F0013E39F700932802AE
:100560003F915F914F911F910F912F916F91CCB35C
:10057000C0FD67CFDF91CF91CFBFCF91189520916C
:100580002802222369F310912602112339F5343011
:100590003AF13093260220932202109123023BE08D
:1005A000311B309323021CC0009126020130B4F4A9
:1005B0000AE53091010234FD14C000930102C6E146
:1005C000D2E013C0052710E000C000000BB91AC02C
:1005D000052710E0221F1DC010E021C04AE502C01F
:1005E00032ED432FC4E1D0E032E01AB11C605B9AD7
:1005F0000BB11AB95CE020E865E320FF05270BB9D1
:10060000279517951C3FF0F66695B8F7B1F720FFD0
:1006100005270BB9279517951C3FD0F627951795F9
:1006200017FF052700001C3F0BB9B0F629913A953A
:1006300019F7037F10912702110FC651D0400BB953
:1006400011F01093210211E01CBB08601AB1137F56
:10065000402F437F54E05A95F1F70BB91AB94BB9C3
:100660007FCFDC01CB0121E1B695A79597958795C2
:100670002A95D1F7209146022817A9F080934602C7
:100680008FEF81B9409843984498459A80914602EB
:1006900082B9429A8AE18A95F1F700C042988AE1CC
:1006A0008A95F1F700C008959FEF91B982B9439AF6
:1006B0004098449880914402811101C0459885E09A
:1006C0008A95F1F70000429A8AE18A95F1F700C015
:1006D00042988AE18A95F1F700C0089543984098BE
:1006E0006623C1F0449A90914402911101C045984B
:1006F0009FEF91B982B98AE18A95F1F700C0429AD9
:100700008AE18A95F1F700C042988AE18A95F1F76B
:1007100000C008954498E7CF5F988FE39CE9019764
:10072000F1F700C000005F9A0895429A8AE18A9525
:10073000F1F700C042988AE18A95F1F700C0089568
:10074000CF93DF9344E0849FD001112470E0660FC3
:10075000771F660F771F11B82AE030E0E0E0F0E085
:10076000C1E0D0E01EC0409AAB01092E02C05695F0
:1007700047950A94E2F740FF24C0419A439A85E0E6
:100780008A95F1F700004398009B08C0AE0102C0B3
:10079000440F551F9A95E2F7E42BF52B21503109B0
:1007A00090F055E05A95F1F70000922FAD01022E1E
:1007B00002C0569547950A94E2F740FDD4CF409881
:1007C000D3CF4198DBCFCF019695879596958795A6
:1007D00096958795DF91CF91089587EC90E00197EA
:1007E000F1F700C000008FEF9FE006C025E32A95D7
:1007F000F1F70000019719F0009BF8CF08955F987A
:100800008FE39CE90197F1F700C000005F9A08951B
:1008100090914402923008F008950C945403909102
:100820004402923008F008950C946E03CF93C82FC1
:1008300090914402923088F068E08CE40E94A0031A
:100840006C2F8CE00E94A00360E088E60E94A00369
:1008500060E08CE6CF910C94A00388E00E945403E2
:1008600080914402823020F460E08C2F0E946E035D
:1008700011B846988FE99FE00197F1F700C000009A
:1008800080B1469ACF910895CF935F9A4298409A4B
:10089000439A8FE39CE90197F1F700C000005F984D
:1008A0008FE39CE90197F1F700C00000CAE0429A8B
:1008B0009AE19A95F1F700C042982AE12A95F1F75A
:1008C00000C0C150A1F741984098439844988FEFD9
:1008D00099EF20E0815090402040E1F700C00000F7
:1008E0005F9A8FEF90E722E0815090402040E1F73F
:1008F00000C000001092440280E00E9416048E3175
:1009000009F45DC05E988FEF93EC29E08150904030
:100910002040E1F700C00000409843984498479871
:1009200046985F988FEF99EF20E0815090402040EB
:10093000E1F700C000005E9A8FE39CE90197F1F7B0
:1009400000C000005F9A9FEF29E688E191502040A7
:100950008040E1F700C00000479A469A81E080930A
:10096000440280E00E9416048E3149F15E9843985B
:100970008FEF81B94198409810985F988FE39CE978
:100980000197F1F700C000005E9A5F9A9FEF29EF90
:1009900080E0915020408040E1F700C0000011B895
:1009A0008FEC97E00197F1F700C0000082E08093A0
:1009B000440280E00E941604C1E08E3119F08C2FB1
:1009C000CF910895C0E08C2FCF910895CF93C82F79
:1009D000843048F08BEAC89F812D11248695982F8A
:1009E000990F890FC81B80914402823098F164E00E
:1009F0008CE40E94A003C13091F0CC23C9F0C23036
:100A000001F1C33019F080E0CF91089560E088E7EC
:100A10000E94A00360E08CE7CF910C94A00360E0FB
:100A200088E60E94A00360E08CE6CF910C94A003BE
:100A300060E08AE70E94A00360E08EE7CF910C940B
:100A4000A00360E08AE60E94A00360E08EE6CF91FA
:100A50000C94A00384E00E94540311B8CC2399F0B5
:100A6000C130C1F4449880914402811123C045985B
:100A700046988FE99FE00197F1F700C0000080B130
:100A8000469ACF910895449A8091440281110AC0F8
:100A9000459AEECFC23041F44498809144028111CE
:100AA00001C0459A439AE4CF449A8091440281114F
:100AB00001C045984398DCCFCF93DF93C82FD62F42
:100AC00080914402823078F0C03A09F47FC0C83A7D
:100AD00009F47EC0C43A09F44AC0C03E09F462C0B9
:100AE000DF91CF910895419880914402C03E09F46E
:100AF00052C0823008F490C025E32A95F1F7000037
:100B00004398409AD2B985E38A95F1F70000429A5A
:100B10009AE19A95F1F700C042982AE12A95F1F7F7
:100B200000C0C03A09F46FC0C83A09F465C0C43ABD
:100B300031F444988091440281116CC0459A85E358
:100B40008A95F1F7000047988FE99FE00197F1F748
:100B500000C00000479A9FEF21EE84E091502040B2
:100B60008040E1F700C00000DF91CF91089560E47C
:100B70008CE40E94A0036D2F8CE20E94A00360E031
:100B800086E60E94A00360E08EE60E94A003DF914B
:100B9000CF910C94ED03823008F0AECF80E20E943A
:100BA0005403AACF60E28CE40E94A0036D2F8CE274
:100BB0000E94A00360E084E60E94A00360E08CE64F
:100BC0000E94A003DF91CF910C94ED0360E4EBCF82
:100BD00060E48CE40E94A0036D2F8CE20E94A003CD
:100BE00060E084E70E94A00360E08CE70E94A0031D
:100BF000DF91CF910C94ED03449A809144028111CE
:100C000007C045989CCF4498809144028823C9F33B
:100C1000439895CF439A93CF80E40E9454036CCFBE
:100C200080914402823008F0089580E80E945403C5
:100C300047988FE193E00197F1F700C00000479AD1
:100C40009FEF22E587E0915020408040E1F700C00F
:100C500000000895089560E88CE40E94A00360E01D
:100C600084E60E94A00360E08CE60E94A0030C943E
:100C7000ED0326B59091470286B5821B8917E0F3F4
:100C800008958FEF88B987B911B88AB1806C8AB995
:100C9000479A469A10924602089511B817B85E987E
:100CA0005F988AB18F738AB908958FEF08958FEF97
:100CB00008950C944404CF92DF92EF92FF926B015F
:100CC0007C01809144028230B0F162E08CE40E94A9
:100CD000A003C701B60196958795779567958CE037
:100CE0000E94A003C701B60139E0969587957795D4
:100CF00067953A95D1F78CE10E94A00360E088E601
:100D00000E94A00360E0C0FC0BC088E60E94A00324
:100D100060E08CE6FF90EF90DF90CF900C94A00302
:100D200088E70E94A00360E08CE7FF90EF90DF90DF
:100D3000CF900C94A00382E00E945403C701B60137
:100D40000E943103D701C60159E0B695A795979542
:100D500087955A95D1F720914402223090F011B82E
:100D6000C0FE0DC0449A469885E08A95F1F70000D0
:100D700080B1469AFF90EF90DF90CF90089544980D
:100D8000F2CF61E00E946E03D701C601B695A79528
:100D90009795879520914402223008F760E00E94E1
:100DA0006E03DDCFCF92DF92EF92FF92CF93DF936E
:100DB0001F92CDB7DEB76B017C0180914402823077
:100DC000A8F180914A0290E020914B0230914C02B0
:100DD0008217930709F466C0C0FC0BC04093400221
:100DE00080E00F90DF91CF91FF90EF90DF90CF9058
:100DF0000895C701B60196958795779567958CE01C
:100E000049830E94A003609140028CE20E94A003EB
:100E10004981642F8CE30E94A00360E08DE70E946B
:100E2000A00360E08CE70E94A003DACF80914A0221
:100E300090E020914B0230914C0282179307C9F148
:100E4000C0FECCCFF694E794D794C7948C2D60E085
:100E500049830E946E034981409A439880914002E1
:100E600082B9429A8AE18A95F1F700C042988AE1F4
:100E70008A95F1F700C0449A42B9429A8AE18A956C
:100E8000F1F700C042988AE18A95F1F700C0419AD3
:100E900085E08A95F1F70000419885E08A95F1F7A1
:100EA00000009ECF60E18CE449830E94A003498149
:100EB00093CF80E149830E9454034981C0FE8ECFC5
:100EC00080914402823040F6BDCFCF92DF92EF9204
:100ED000FF926B017C0180914402823020F1C701B6
:100EE000B60129E096958795779567952A95D1F76C
:100EF0008CE10E94A00360E084E60E94A00360E011
:100F00008CE60E94A0038FEF9CE70197F1F700C0E9
:100F1000000060E08CE40E94A00381E0FF90EF906D
:100F2000DF90CF900895D701C60139E0B695A79517
:100F3000979587953A95D1F761E00E946E03C701B6
:100F4000B6010E943103479885E08A95F1F70000C9
:100F5000479A8FEF9CE70197F1F700C00000439A92
:100F6000409812B8429A9AE19A95F1F700C04298D7
:100F70008AE18A95F1F700C080E0FF90EF90DF9062
:100F8000CF9008951F93CF93DF931F92CDB7DEB715
:100F9000182F209144022230D0F063E08CE4998332
:100FA0000E94A003612F8CE00E94A0039981692F09
:100FB0008CE10E94A00360E088E60E94A00360E04C
:100FC0008CE60F90DF91CF911F910C94A00383E0EA
:100FD0000E94540380914402823070F011B844980A
:100FE000469885E08A95F1F7000080B1469A0F9007
:100FF000DF91CF911F91089561E0812F0E946E03D0
:1010000080914402823050F760E0812F0E946E038D
:10101000E5CF1F93CF93DF9320914402223008F154
:10102000C62FD92F182F61E18CE40E94A003612FF5
:101030008CE00E94A0036D2F8CE10E94A0036C2F16
:101040008CE20E94A00360E08DE60E94A00360E0B5
:1010500084E60E94A00360E08CE60E94A0030E9448
:10106000ED0380E0DF91CF911F9108951F93CF93FF
:10107000DF938823A9F0182FD0E0C6B566B56C1BA6
:1010800070E080E090E00E94650C20E030E040EAF3
:1010900052E40E945E0C87FDF1CFDF5FD113EDCFEC
:1010A000DF91CF911F910895259A23982B9A50E2B2
:1010B00017D05A95E9F70895AC0188E605D0842F3A
:1010C00003D089E601D0852F0FD028E030E0382703
:1010D00080FB869506D02A95D1F730FB02D000D050
:1010E000689423982B9A16F02B98239AE091480243
:1010F000F09149023197F0F72D9AE3B1E3FBE091CB
:101100004802F09149023197F0F72D98089520ECAC
:10111000E7DF46F42A95E1F780E02AE1E5DF2A954A
:10112000E9F7DECF28E030E0DBDF869587F9382766
:101130002A95D1F7D5DF27F9322772F3D1DFD0CF47
:10114000DB01742FB9DF84E2BFDFE1DF8D937A9595
:10115000D1F70895DB01742FAFDF83EFB5DF8DE1A9
:10116000B3DF84E6B1DF8D91AFDF82E7ADDFCFDFA4
:101170008078D9F77A9589F70895FC0191819130AB
:1011800089F1923009F4BDC0933009F469C09430FC
:10119000E1F1973009F48AC0953009F458C19630CE
:1011A00009F4B4C0983009F4FBC0993009F463C164
:1011B0009A3009F492C19B3009F4C6C19C3009F4FD
:1011C000DBC19D3009F4F2C19E3009F4F5C19F30B6
:1011D00009F462C1903109F48BC19F3709F4A9C1A8
:1011E00080E037C01B9B5EC080910C020E942B06E2
:1011F00010920B02289A0E94410680E02EE032E015
:101200003093250220932402089580910B028111CE
:1012100012C0838190E0982F88272281822B092E8B
:10122000000CAA0BBB0B8093070290930802A093BB
:101230000902B0930A02878190E0982F88272681BF
:10124000822B909306028093050282E080930D0228
:101250008FEF2EE032E03093250220932402089590
:101260008281803509F4D1C008F48AC0883509F438
:10127000DCC08C3A09F0BFC010920E0280930F02BE
:10128000838180931002848180931102838183354E
:1012900009F4DBC0803809F427C165810E945C0530
:1012A00084E0D7CF85E00E942B06A2CF80910B026D
:1012B000811112C0838190E0982F88272281822B90
:1012C000092E000CAA0BBB0B809307029093080217
:1012D000A0930902B0930A02878190E0982F882793
:1012E0002681822B909306028093050283E08093EF
:1012F0000D028FEF2EE032E030932502209324027E
:1013000008950E944D06289880E0A3CF80910B029B
:10131000811112C0838190E0982F88272281822B2F
:10132000092E000CAA0BBB0B8093070290930802B6
:10133000A0930902B0930A0234812581822F8F7015
:1013400080930402822F807F40E1849FC00111249A
:10135000830F911D90934C0280934B0220FD80934C
:101360004A02878190E0982F88272681822B9093CC
:1013700006028093050281E080930D028FEF69CF12
:101380008033C9F510920E0280930F021092100262
:10139000848183700E9416048093110284E059CFE7
:1013A00080910B02811112C0838190E0982F8827D1
:1013B0002281822B092E000CAA0BBB0B8093070203
:1013C00090930802A0930902B0930A0210924C0273
:1013D00010924B0210920402878190E0982F882788
:1013E0002681822B909306028093050284E08093ED
:1013F0000D028FEF2ECF10920E0210920F0210925C
:1014000010021092110284E024CF938110920E02F8
:1014100080930F02109210029830F9F081E00E9440
:10142000E6048093110284E014CF938110920E029F
:1014300080930F02109210029830B1F083E00E9466
:10144000E6048093110284E004CF84E002CF0E947E
:10145000590680930E0281E0FCCE82E00E94E604F1
:101460008093110284E0F5CE80E00E94E604809330
:10147000110284E0EECE81E080930B0282819381A1
:10148000A481B5818093070290930802A09309027A
:10149000B0930A0280E0DDCE838190E0982F882708
:1014A0002281822B092E000CAA0BBB0B8093070212
:1014B00090930802A0930902B0930A02878190E0FA
:1014C000982F88272681822B90930602809305020D
:1014D00085E080930D028FEFBCCE828180930C0259
:1014E00010920E0281E0B5CE0E94100684E0B1CECB
:1014F000838190E0982F88272281822B092E000C6F
:10150000AA0BBB0B8093070290930802A0930902D9
:10151000B0930A02878190E0982F88272681822B3A
:10152000909306028093050286E080930D028FEF70
:1015300090CE81E080930E0210920F021092100262
:101540001092110284E085CE838190E0982F882745
:101550002281822B90934902809348022C9A249AEC
:1015600083E00E9436082C98289A80E10E94360871
:101570000E94540880E06DCE80EC0E94640880E0F8
:101580000E9464088AE00E9436082C9A85E00E9436
:1015900036082C9885E00E94360884B18F7484B98F
:1015A00085B18F7485B9289880E053CE0E94870852
:1015B00080930E0281E04DCE82810E94640880E01B
:1015C00048CEFF920F931F93CF93DF93582F792F1D
:1015D000F62E20910D023EEF320F323050F02530C2
:1015E00009F454C08FEFDF91CF911F910F91FF90BD
:1015F0000895662309F441C0809107029091080282
:10160000A0910902B0910A02052F172F3FEF360F64
:10161000E801C30FD11D1EC00E94C207F8018083DC
:101620008091070290910802A0910902B0910A02EC
:101630000196A11DB11D8093070290930802A0930B
:101640000902B0930A020C171D0769F020910D02E0
:101650000F5F1F4F223001F7BC01CD010E945B06D6
:10166000F8018083DDCFF7E0FF1538F48F2DDF918F
:10167000CF911F910F91FF90089510920D028F2D21
:10168000DF91CF911F910F91FF900895462F682F02
:1016900080910702909108020E94A00880910702A1
:1016A00090910802A0910902B0910A028F0D911D3C
:1016B000A11DB11D8093070290930802A093090217
:1016C000B0930A028F2D8FCFFF920F931F93CF936A
:1016D000DF93382F792F162F20910D02213061F0E2
:1016E000243051F0263009F499C08FEFDF91CF916B
:1016F0001F910F91FF900895112309F487C08091E5
:10170000070290910802A0910902B0910A02C32F2A
:10171000D72F1150AE01410F511D8A01F12C4FC03E
:1017200020914B0230914C02232B09F052C021E052
:101730004881BC01CD010E94D20620910502309162
:101740000602215031093093060220930502232B13
:10175000E9F410920D028091040281FF37C080915C
:101760004A0290E020914B0230914C02821793077D
:1017700069F16091070270910802809109029091CD
:101780000A0248810E946507FF24F39480910702B2
:1017900090910802A0910902B0910A020196A11D40
:1017A000B11D8093070290930802A0930902B093A1
:1017B0000A02C017D10759F120910D02219621305C
:1017C00009F4AECF68810E940908B7CFFF24F394D3
:1017D000DDCF20E04881BC01CD010E94D20680917E
:1017E0004A02815080934A028111A7CF609107027B
:1017F000709108028091090290910A0248810E942A
:10180000650780914B0280934A0297CFF12C8F2D70
:10181000DF91CF911F910F91FF900895462F682F70
:1018200080910702909108020E94AA088091070205
:1018300090910802A0910902B0910A02810F911DB6
:10184000A11DB11D8093070290930802A093090285
:10185000B0930A028091050290910602811B9109C2
:101860009093060280930502892B21F410920D02B9
:1018700081E03CCF80E03ACF85B18C7F85B9539A27
:101880008FEFA895EFE9FFE03197F1F700C0000076
:101890008150B9F7539884B1836084B92B9A089525
:1018A00029980895299A08950E94FD010E943C0CF0
:1018B00083E085BD78940E94BE00FDCF0E94A00CFD
:1018C00008F481E00895E89409C097FB3EF49095F0
:1018D0008095709561957F4F8F4F9F4F9923A9F009
:1018E000F92F96E9BB279395F69587957795679598
:1018F000B795F111F8CFFAF4BB0F11F460FF1BC0DC
:101900006F5F7F4F8F4F9F4F16C0882311F096E96E
:1019100011C0772321F09EE8872F762F05C066231C
:1019200071F096E8862F70E060E02AF09A95660FD5
:10193000771F881FDAF7880F9695879597F908958E
:10194000990F0008550FAA0BE0E8FEEF16161706D0
:10195000E807F907C0F012161306E407F50798F038
:10196000621B730B840B950B39F40A2661F0232B51
:10197000242B252B21F408950A2609F4A140A695CD
:0C1980008FEF811D811D0895F894FFCFAA
:02198C00FF5A00
:00000001FF
