:100000000C9461000C94DF010C947E000C947E0033
:100010000C947E000C947E000C947E000C947E0068
:100020000C947E000C947E000C947E000C947E0058
:100030000C947E000C947E000C947E000C947E0048
:100040000C947E000C947E000C947E000C947E0038
:100050000C947E000C947E000C947E000C947E0028
:100060000C947E000C947E000C947E000C947E0018
:1000700009021200010100801909040000000000BB
:10008000000012011001FF000008C016DC05040189
:10009000010200010E03550053004200610073008D
:1000A00070001C037700770077002E00660069005F
:1000B0007300630068006C002E0064006500040398
:1000C000090411241FBECFEFD0E1DEBFCDBF11E088
:1000D000A0E0B1E0E0E1F9E102C005900D92A230AC
:1000E000B107D9F721E0A2E0B1E001C01D92AD3423
:1000F000B207E1F70E94160C0C94860C0C940000D9
:10010000CF93DF9360912601635067FD14C0209167
:1001100023018CE090E0821B9109EC01C65DDE4F6B
:10012000809122018D3209F468C08091030187FD1E
:10013000ABC0109226018091010184FF40C0609104
:1001400000016F3F09F43BC0693008F47EC068507D
:10015000609300019091160188E889278093160129
:1001600068E08091030187FD1CC02091240130913B
:10017000250186FF80C0A7E1B1E0F901962F8491A7
:100180008D9331969150D9F78FEF860F90E00196BD
:10019000280F391F3093250120932401C4E0C60F96
:1001A0005FC087E191E00E94A30A682F893008F4BC
:1001B000B5C08FEF80930001CEE1C093010194E1BF
:1001C00089B18C7081F49150D9F710922701109267
:1001D000210180910201813019F0C1E0C093020138
:1001E000DF91CF910895C1E09111C0E080910201AB
:1001F000C817B1F30E94120CF1CF683009F099CF03
:1002000083EC809316018AE580930101109203012B
:100210008881807609F043C08A8110921F019981FC
:10022000911149C0109220012FE131E082E030931A
:100230002501209324019F81911104C09E8198176C
:1002400008F4892F8093000174CF109200019091DF
:10025000160188E8892780931601611182CFC4E0D6
:1002600087E191E00E94DB01CC3009F4A6CF8FEF4B
:1002700080930001A2CFD901E7E1F1E0962F8D91A3
:1002800081939150E1F780CFCE010E94260B8F3FE2
:1002900009F1882309F44DCF109200014ACFCE0115
:1002A0000E947F088F3F39F6988197FD17C090E82C
:1002B00090930301C7CF9530E9F0963019F198304B
:1002C00079F0993089F081E09A3009F080E02FE1EF
:1002D00031E0ADCF8EE1809301012BCF8E81E7CF4E
:1002E00029E231E081E0A3CF809329012FE131E0C1
:1002F00080E09DCF809327010E94140C2FE131E014
:1003000080E095CF9B819130F1F09230A1F0933055
:1003100041F080E090E4909303018DCFC4E0C80FDA
:100320009FCF811118C08EEB90E0909325018093B0
:10033000240184E0EFCF80E790E090932501809343
:10034000240182E1E7CF82E890E090932501809339
:10035000240182E1DFCF813051F08230D1F684E98F
:1003600090E090932501809324018EE0D3CF82EA20
:1003700090E090932501809324018CE1CBCFE9E6B6
:10038000F0E0808183608083E89A0895A82FB92FD8
:1003900080E090E041E050EA609530E009C02D91A6
:1003A00082279795879510F084279527305EC8F3AC
:1003B0006F5FA8F30895EADF8D939D930895CF931F
:1003C000CFB7CF93DF93C3954B9BE9F74B9B0BC004
:1003D0004B9B09C04B9B07C04B9B05C04B9B03C06D
:1003E0004B9B01C089C06F93C0912301DD27C65D7F
:1003F000DE4F2F9365E54B9B03C02F916F91E6CFA6
:100400000F931F934F9320E040E15F9309B10C706D
:1004100003FB27F93F9350E03BE039C01C70406478
:100420002F77012F5F5F1EC0406819B11C702F77B6
:1004300052501FC0406409B12F770C70D1F15F5F3B
:1004400000C023C0406219B12F771C7091F15F5F2B
:1004500000C025C00C701027515012F45D5F0000E1
:10046000115027952C3F19B1C8F61C700127015077
:1004700027952C3FC8F64227499309B10C701027E5
:100480004F73115027952C3FA8F64695469519B104
:100490001C7079F00127015027952C3F98F66B5A74
:1004A00060F3315009B1B0F600C011E01CBB002769
:1004B00017C03B503195C31BD04011E01CBB0881D5
:1004C000033CF9F00B34E9F0209121011981110F5F
:1004D0001213EDCF093651F10D3211F0013E39F70B
:1004E000009328013F915F914F911F910F912F91A0
:1004F0006F91CCB3C0FD67CFDF91CF91CFBFCF91CC
:10050000189520912801222369F3109126011123C7
:1005100039F534303AF130932601209322011091BD
:1005200023013BE0311B309323011CC000912601C5
:100530000130B4F40AE53091010134FD14C0009398
:100540000101C6E1D1E013C0052710E000C00000A2
:100550000BB91AC0052710E0221F1DC010E021C0F2
:100560004AE502C032ED432FC4E1D0E032E01AB1D7
:100570001C605B9A0BB11AB95CE020E865E320FFD0
:1005800005270BB9279517951C3FF0F66695B8F728
:10059000B1F720FF05270BB9279517951C3FD0F61B
:1005A0002795179517FF052700001C3F0BB9B0F6DC
:1005B00029913A9519F7037F10912701110FC65120
:1005C000D0400BB911F01093210111E01CBB086061
:1005D0001AB1137F402F437F54E05A95F1F70BB9BE
:1005E0001AB94BB97FCFDC01CB0121E1B695A795B4
:1005F000979587952A95D1F7209146012817A9F05C
:10060000809346018FEF81B9409843984498459A6A
:100610008091460182B9429A8AE18A95F1F700C039
:1006200042988AE18A95F1F700C008959FEF91B949
:1006300082B9439A4098449880914401811101C045
:10064000459885E08A95F1F70000429A8AE18A95FB
:10065000F1F700C042988AE18A95F1F700C0089549
:10066000439840986623C1F0449A909144019111B7
:1006700001C045989FEF91B982B98AE18A95F1F757
:1006800000C0429A8AE18A95F1F700C042988AE157
:100690008A95F1F700C008954498E7CF5F988FE3FB
:1006A0009CE90197F1F700C000005F9A0895429A13
:1006B0008AE18A95F1F700C042988AE18A95F1F7BC
:1006C00000C00895CF93DF9344E0849FD0011124AC
:1006D00070E0660F771F660F771F11B82AE030E0D1
:1006E000E0E0F0E0C1E0D0E01EC0409AAB01092E8E
:1006F00002C0569547950A94E2F740FF24C0419AFC
:10070000439A85E08A95F1F700004398009B08C062
:10071000AE0102C0440F551F9A95E2F7E42BF52B6A
:100720002150310990F055E05A95F1F70000922FD1
:10073000AD01022E02C0569547950A94E2F740FD9E
:10074000D4CF4098D3CF4198DBCFCF0196958795F2
:100750009695879596958795DF91CF91089587EC2B
:1007600090E00197F1F700C000008FEF9FE006C016
:1007700025E32A95F1F70000019719F0009BF8CFC7
:1007800008955F988FE39CE90197F1F700C000009E
:100790005F9A089590914401923008F008950C9466
:1007A000160390914401923008F008950C943003A0
:1007B000CF93C82F90914401923088F068E08CE488
:1007C0000E9462036C2F8CE00E94620360E088E666
:1007D0000E94620360E08CE6CF910C94620388E093
:1007E0000E94160380914401823020F460E08C2F37
:1007F0000E94300311B846988FE99FE00197F1F706
:1008000000C0000080B1469ACF910895CF935F9ABF
:100810004298409A439A8FE39CE90197F1F700C010
:1008200000005F988FE39CE90197F1F700C000009A
:10083000CAE0429A9AE19A95F1F700C042982AE1FB
:100840002A95F1F700C0C150A1F74198409843980C
:1008500044988FEF99EF20E0815090402040E1F7DD
:1008600000C000005F9A8FEF90E722E08150904037
:100870002040E1F700C000001092440180E00E9497
:10088000D8038E3109F45DC05E988FEF93EC29E0B8
:10089000815090402040E1F700C00000409843980C
:1008A0004498479846985F988FEF99EF20E08150E1
:1008B00090402040E1F700C000005E9A8FE39CE981
:1008C0000197F1F700C000005F9A9FEF29E688E1E9
:1008D000915020408040E1F700C00000479A469ABE
:1008E00081E08093440180E00E94D8038E3149F179
:1008F0005E9843988FEF81B94198409810985F981F
:100900008FE39CE90197F1F700C000005E9A5F9ABF
:100910009FEF29EF80E0915020408040E1F700C038
:10092000000011B88FEC97E00197F1F700C00000CC
:1009300082E08093440180E00E94D803C1E08E31C0
:1009400019F08C2FCF910895C0E08C2FCF9108958E
:10095000CF93C82F843048F08BEAC89F812D112493
:100960008695982F990F890FC81B8091440182307A
:1009700098F164E08CE40E946203C13091F0CC23D2
:10098000C9F0C23001F1C33019F080E0CF91089571
:1009900060E088E70E94620360E08CE7CF910C94EE
:1009A000620360E088E60E94620360E08CE6CF911B
:1009B0000C94620360E08AE70E94620360E08EE7C5
:1009C000CF910C94620360E08AE60E94620360E0CB
:1009D0008EE6CF910C94620384E00E94160311B856
:1009E000CC2399F0C130C1F4449880914401811125
:1009F00023C0459846988FE99FE00197F1F700C022
:100A0000000080B1469ACF910895449A80914401A4
:100A100081110AC0459AEECFC23041F444988091CA
:100A20004401811101C0459A439AE4CF449A8091D0
:100A30004401811101C045984398DCCFCF93DF93E7
:100A4000C82FD62F80914401823078F0C03A09F443
:100A50007FC0C83A09F47EC0C43A09F44AC0C03E17
:100A600009F462C0DF91CF910895419880914401CB
:100A7000C03E09F452C0823008F490C025E32A95A4
:100A8000F1F700004398409AD2B985E38A95F1F7CF
:100A90000000429A9AE19A95F1F700C042982AE143
:100AA0002A95F1F700C0C03A09F46FC0C83A09F4BA
:100AB00065C0C43A31F444988091440181116CC0FE
:100AC000459A85E38A95F1F7000047988FE99FE002
:100AD0000197F1F700C00000479A9FEF21EE84E0F4
:100AE000915020408040E1F700C00000DF91CF919D
:100AF000089560E48CE40E9462036D2F8CE20E94F2
:100B0000620360E086E60E94620360E08EE60E9477
:100B10006203DF91CF910C94AF03823008F0AECF27
:100B200080E20E941603AACF60E28CE40E94620376
:100B30006D2F8CE20E94620360E084E60E946203F3
:100B400060E08CE60E946203DF91CF910C94AF03CA
:100B500060E4EBCF60E48CE40E9462036D2F8CE2D2
:100B60000E94620360E084E70E94620360E08CE719
:100B70000E946203DF91CF910C94AF03449A80915D
:100B80004401811107C045989CCF4498809144014D
:100B90008823C9F3439895CF439A93CF80E40E946A
:100BA00016036CCF80914401823008F0089580E8EC
:100BB0000E94160347988FE193E00197F1F700C078
:100BC0000000479A9FEF22E587E091502040804047
:100BD000E1F700C000000895089560E88CE40E94E9
:100BE000620360E084E60E94620360E08CE60E949B
:100BF00062030C94AF0326B59091470186B5821B22
:100C00008917E0F308958FEF88B987B911B88AB1D1
:100C1000806C8AB9479A469A10924601089511B895
:100C200017B85E985F988AB18F738AB908958FEF6D
:100C300008958FEF08950C940604CF92DF92EF92FF
:100C4000FF926B017C01809144018230B0F162E03F
:100C50008CE40E946203C701B6019695879577954B
:100C600067958CE00E946203C701B60139E0969552
:100C70008795779567953A95D1F78CE10E94620345
:100C800060E088E60E94620360E0C0FC0BC088E67A
:100C90000E94620360E08CE6FF90EF90DF90CF90BF
:100CA0000C94620388E70E94620360E08CE7FF9087
:100CB000EF90DF90CF900C94620382E00E941603C5
:100CC000C701B6010E94F302D701C60159E0B695EB
:100CD000A795979587955A95D1F720914401223091
:100CE00090F011B8C0FE0DC0449A469885E08A95F0
:100CF000F1F7000080B1469AFF90EF90DF90CF901F
:100D000008954498F2CF61E00E943003D701C601F4
:100D1000B695A7959795879520914401223008F7BD
:100D200060E00E943003DDCFCF92DF92EF92FF921E
:100D3000CF93DF931F92CDB7DEB76B017C0180911B
:100D400044018230A8F180914A0190E020914B014A
:100D500030914C018217930709F466C0C0FC0BC0A8
:100D60004093400180E00F90DF91CF91FF90EF9092
:100D7000DF90CF900895C701B60196958795779536
:100D800067958CE049830E946203609140018CE288
:100D90000E9462034981642F8CE30E94620360E039
:100DA0008DE70E94620360E08CE70E946203DACF65
:100DB00080914A0190E020914B0130914C018217C3
:100DC0009307C9F1C0FECCCFF694E794D794C794AB
:100DD0008C2D60E049830E9430034981409A4398FA
:100DE0008091400182B9429A8AE18A95F1F700C068
:100DF00042988AE18A95F1F700C0449A42B9429A32
:100E00008AE18A95F1F700C042988AE18A95F1F764
:100E100000C0419A85E08A95F1F70000419885E08D
:100E20008A95F1F700009ECF60E18CE449830E942F
:100E30006203498193CF80E149830E94160349816F
:100E4000C0FE8ECF80914401823040F6BDCFCF925C
:100E5000DF92EF92FF926B017C018091440182301E
:100E600020F1C701B60129E096958795779567959A
:100E70002A95D1F78CE10E94620360E084E60E942B
:100E8000620360E08CE60E9462038FEF9CE70197AB
:100E9000F1F700C0000060E08CE40E94620381E092
:100EA000FF90EF90DF90CF900895D701C60139E011
:100EB000B695A795979587953A95D1F761E00E94E9
:100EC0003003C701B6010E94F302479885E08A9576
:100ED000F1F70000479A8FEF9CE70197F1F700C008
:100EE0000000439A409812B8429A9AE19A95F1F715
:100EF00000C042988AE18A95F1F700C080E0FF9037
:100F0000EF90DF90CF9008951F93CF93DF931F92C0
:100F1000CDB7DEB7182F209144012230D0F063E026
:100F20008CE499830E946203612F8CE00E9462032B
:100F30009981692F8CE10E94620360E088E60E943B
:100F4000620360E08CE60F90DF91CF911F910C94CB
:100F5000620383E00E94160380914401823070F0A6
:100F600011B84498469885E08A95F1F7000080B161
:100F7000469A0F90DF91CF911F91089561E0812FE4
:100F80000E94300380914401823050F760E0812F4D
:100F90000E943003E5CF1F93CF93DF93209144014C
:100FA000223008F1C62FD92F182F61E18CE40E945E
:100FB0006203612F8CE00E9462036D2F8CE10E941E
:100FC00062036C2F8CE20E94620360E08DE60E9457
:100FD000620360E084E60E94620360E08CE60E94A7
:100FE00062030E94AF0380E0DF91CF911F910895CB
:100FF0001F93CF93DF938823A9F0182FD0E0C6B5B5
:1010000066B56C1B70E080E090E00E94270C20E049
:1010100030E040EA52E40E94200C87FDF1CFDF5F10
:10102000D113EDCFDF91CF911F910895259A239889
:101030002B9A50E217D05A95E9F70895AC0188E64B
:1010400005D0842F03D089E601D0852F0FD028E06A
:1010500030E0382780FB869506D02A95D1F730FB03
:1010600002D000D0689423982B9A16F02B98239ADC
:10107000E0914801F09149013197F0F72D9AE3B1E1
:10108000E3FBE0914801F09149013197F0F72D9889
:10109000089520ECE7DF46F42A95E1F780E02AE1A5
:1010A000E5DF2A95E9F7DECF28E030E0DBDF869543
:1010B00087F938272A95D1F7D5DF27F9322772F338
:1010C000D1DFD0CFDB01742FB9DF84E2BFDFE1DFF6
:1010D0008D937A95D1F70895DB01742FAFDF83EFFD
:1010E000B5DF8DE1B3DF84E6B1DF8D91AFDF82E75D
:1010F000ADDFCFDF8078D9F77A9589F70895FC01C5
:101100009181913089F1923009F4BDC0933009F496
:1011100069C09430E1F1973009F48AC0953009F440
:1011200058C1963009F4B4C0983009F4FBC0993026
:1011300009F463C19A3009F492C19B3009F4C6C125
:101140009C3009F4DBC19D3009F4F2C19E3009F4F2
:10115000F5C19F3009F462C1903109F48BC19F370A
:1011600009F4A9C180E037C01B9B5EC080910C01CF
:101170000E94ED0510920B01289A0E94030680E060
:101180002EE031E0309325012093240108958091D1
:101190000B01811112C0838190E0982F8827228152
:1011A000822B092E000CAA0BBB0B80930701909396
:1011B0000801A0930901B0930A01878190E0982F5C
:1011C00088272681822B909306018093050182E077
:1011D00080930D018FEF2EE031E0309325012093B5
:1011E000240108958281803509F4D1C008F48AC0B1
:1011F000883509F4DCC08C3A09F0BFC010920E01AA
:1012000080930F0183818093100184818093110169
:101210008381833509F4DBC0803809F427C16581F7
:101220000E941E0584E0D7CF85E00E94ED05A2CF85
:1012300080910B01811112C0838190E0982F882743
:101240002281822B092E000CAA0BBB0B8093070175
:1012500090930801A0930901B0930A01878190E05F
:10126000982F88272681822B909306018093050171
:1012700083E080930D018FEF2EE031E03093250164
:101280002093240108950E940F06289880E0A3CFA0
:1012900080910B01811112C0838190E0982F8827E3
:1012A0002281822B092E000CAA0BBB0B8093070115
:1012B00090930801A0930901B0930A01348125811C
:1012C000822F8F7080930401822F807F40E1849F62
:1012D000C0011124830F911D90934C0180934B0109
:1012E00020FD80934A01878190E0982F88272681EE
:1012F000822B909306018093050181E080930D017C
:101300008FEF69CF8033C9F510920E0180930F01E2
:1013100010921001848183700E94D8038093110180
:1013200084E059CF80910B01811112C0838190E03C
:10133000982F88272281822B092E000CAA0BBB0B29
:101340008093070190930801A0930901B0930A01CB
:1013500010924C0110924B0110920401878190E091
:10136000982F88272681822B909306018093050170
:1013700084E080930D018FEF2ECF10920E0110921A
:101380000F01109210011092110184E024CF93817B
:1013900010920E0180930F01109210019830F9F015
:1013A00081E00E94A8048093110184E014CF93810E
:1013B00010920E0180930F01109210019830B1F03D
:1013C00083E00E94A8048093110184E004CF84E0AC
:1013D00002CF0E941B0680930E0181E0FCCE82E0CA
:1013E0000E94A8048093110184E0F5CE80E00E9461
:1013F000A8048093110184E0EECE81E080930B017C
:1014000082819381A481B581809307019093080123
:10141000A0930901B0930A0180E0DDCE838190E0C2
:10142000982F88272281822B092E000CAA0BBB0B38
:101430008093070190930801A0930901B0930A01DA
:10144000878190E0982F88272681822B9093060130
:101450008093050185E080930D018FEFBCCE8281E2
:1014600080930C0110920E0181E0B5CE0E94D2054E
:1014700084E0B1CE838190E0982F88272281822B4F
:10148000092E000CAA0BBB0B809307019093080157
:10149000A0930901B0930A01878190E0982F8827D3
:1014A0002681822B909306018093050186E080932C
:1014B0000D018FEF90CE81E080930E0110920F010D
:1014C000109210011092110184E085CE838190E08A
:1014D000982F88272281822B90934901809348017D
:1014E0002C9A249A83E00E94F8072C98289A80E18D
:1014F0000E94F8070E94160880E06DCE80EC0E94E2
:10150000260880E00E9426088AE00E94F8072C9AAC
:1015100085E00E94F8072C9885E00E94F80784B1C6
:101520008F7484B985B18F7485B9289880E053CEC3
:101530000E94490880930E0181E04DCE82810E9475
:10154000260880E048CEFF920F931F93CF93DF933E
:10155000582F792FF62E20910D013EEF320F3230A9
:1015600050F0253009F454C08FEFDF91CF911F91D7
:101570000F91FF900895662309F441C080910701FF
:1015800090910801A0910901B0910A01052F172F30
:101590003FEF360FE801C30FD11D1EC00E94840724
:1015A000F80180838091070190910801A0910901C1
:1015B000B0910A010196A11DB11D8093070190937E
:1015C0000801A0930901B0930A010C171D0769F0E7
:1015D00020910D010F5F1F4F223001F7BC01CD019B
:1015E0000E941D06F8018083DDCFF7E0FF1538F477
:1015F0008F2DDF91CF911F910F91FF900895109241
:101600000D018F2DDF91CF911F910F91FF900895C4
:10161000462F682F80910701909108010E9462086F
:101620008091070190910801A0910901B0910A01F0
:101630008F0D911DA11DB11D80930701909308018D
:10164000A0930901B0930A018F2D8FCFFF920F93C2
:101650001F93CF93DF93382F792F162F20910D01F1
:10166000213061F0243051F0263009F499C08FEF19
:10167000DF91CF911F910F91FF900895112309F4ED
:1016800087C08091070190910801A0910901B09154
:101690000A01C32FD72F1150AE01410F511D8A01EE
:1016A000F12C4FC020914B0130914C01232B09F0BC
:1016B00052C021E04881BC01CD010E9494062091D6
:1016C0000501309106012150310930930601209324
:1016D0000501232BE9F410920D018091040181FF93
:1016E00037C080914A0190E020914B0130914C012C
:1016F0008217930769F16091070170910801809149
:10170000090190910A0148810E942707FF24F39460
:101710008091070190910801A0910901B0910A01FF
:101720000196A11DB11D8093070190930801A0931C
:101730000901B0930A01C017D10759F120910D0199
:101740002196213009F4AECF68810E94CB07B7CF34
:10175000FF24F394DDCF20E04881BC01CD010E943D
:10176000940680914A01815080934A018111A7CF4C
:1017700060910701709108018091090190910A011F
:1017800048810E94270780914B0180934A0197CF9F
:10179000F12C8F2DDF91CF911F910F91FF90089524
:1017A000462F682F80910701909108010E946C08D4
:1017B0008091070190910801A0910901B0910A015F
:1017C000810F911DA11DB11D809307019093080108
:1017D000A0930901B0930A0180910501909106013F
:1017E000811B91099093060180930501892B21F4B7
:1017F00010920D0181E03CCF80E03ACF85B18C7F23
:1018000085B9539A8FEFA895EFE9FFE03197F1F78B
:1018100000C000008150B9F7539884B1836084B947
:101820002B9A089529980895299A08950E94BF0136
:101830000E94FE0B83E085BD78940E948000FDCF5E
:101840000E94620C08F481E00895E89409C097FBB7
:101850003EF490958095709561957F4F8F4F9F4F87
:101860009923A9F0F92F96E9BB279395F6958795CB
:1018700077956795B795F111F8CFFAF4BB0F11F48E
:1018800060FF1BC06F5F7F4F8F4F9F4F16C0882335
:1018900011F096E911C0772321F09EE8872F762F6B
:1018A00005C0662371F096E8862F70E060E02AF0AC
:1018B0009A95660F771F881FDAF7880F9695879598
:1018C00097F90895990F0008550FAA0BE0E8FEEF6D
:1018D00016161706E807F907C0F012161306E407F4
:1018E000F50798F0621B730B840B950B39F40A26ED
:1018F00061F0232B242B252B21F408950A2609F4CB
:10190000A140A6958FEF811D811D0895F894FFCF0A
:02191000FF5A7C
:00000001FF
