:100000000C946F000C94EF010C948C000C948C00F9
:100010000C948C000C948C000C948C000C948C0030
:100020000C948C000C948C000C948C000C948C0020
:100030000C948C000C948C000C948C000C948C0010
:100040000C948C000C948C000C948C000C948C0000
:100050000C948C000C948C000C948C000C948C00F0
:100060000C948C000C948C000C948C000C948C00E0
:100070000C948C000C948C000C948C000C948C00D0
:100080000C948C000C948C000C948C0009021200CF
:1000900001010080190904000000000000001201A5
:1000A0001001FF000008C016DC0504010102000178
:1000B0000E035500530042006100730070001C03E2
:1000C0007700770077002E006600690073006300F8
:1000D00068006C002E00640065000403090411240C
:1000E0001FBECFEFD0E1DEBFCDBF11E0A0E0B1E099
:1000F000E0E3F9E102C005900D92A230B107D9F713
:1001000021E0A2E0B1E001C01D92AD34B207E1F7F9
:100110000E94260C0C94960C0C940000CF93DF9355
:1001200060912601635067FD14C0209123018CE08B
:1001300090E0821B9109EC01C65DDE4F80912201A7
:100140008D3209F468C08091030187FDABC0109225
:1001500026018091010184FF40C0609100016F3F42
:1001600009F43BC0693008F47EC068506093000118
:100170009091160188E889278093160168E08091A4
:10018000030187FD1CC0209124013091250186FFC9
:1001900080C0A7E1B1E0F901962F84918D9331964B
:1001A0009150D9F78FEF860F90E00196280F391FF5
:1001B0003093250120932401C4E0C60F5FC087E17E
:1001C00091E00E94B30A682F893008F4B5C08FEF20
:1001D00080930001CEE1C093010194E180B38C7063
:1001E00081F49150D9F7109227011092210180914A
:1001F0000201813019F0C1E0C0930201DF91CF917B
:100200000895C1E09111C0E080910201C817B1F3D7
:100210000E94220CF1CF683009F099CF83EC8093D3
:1002200016018AE58093010110920301888180768E
:1002300009F043C08A8110921F019981911149C030
:10024000109220012FE131E082E0309325012093CC
:1002500024019F81911104C09E81981708F4892F71
:100260008093000174CF109200019091160188E8EC
:10027000892780931601611182CFC4E087E191E064
:100280000E94EB01CC3009F4A6CF8FEF80930001E0
:10029000A2CFD901E7E1F1E0962F8D9181939150A2
:1002A000E1F780CFCE010E94360B8F3F09F1882302
:1002B00009F44DCF109200014ACFCE010E948F0861
:1002C0008F3F39F6988197FD17C090E8909303010E
:1002D000C7CF9530E9F0963019F1983079F0993020
:1002E00089F081E09A3009F080E02FE131E0ADCF74
:1002F0008EE1809301012BCF8E81E7CF29E231E09F
:1003000081E0A3CF809329012FE131E080E09DCFF0
:10031000809327010E94240C2FE131E080E095CFEB
:100320009B819130F1F09230A1F0933041F080E068
:1003300090E4909303018DCFC4E0C80F9FCF81114B
:1003400018C08AED90E0909325018093240184E009
:10035000EFCF8CE890E0909325018093240182E117
:10036000E7CF8EE990E0909325018093240182E10C
:10037000DFCF813051F08230D1F680EB90E0909366
:100380002501809324018EE0D3CF8EEB90E09093F3
:100390002501809324018CE1CBCFEAE6F0E0808157
:1003A0008360808389B7816089BF0895A82FB92FA2
:1003B00080E090E041E050EA609530E009C02D9186
:1003C00082279795879510F084279527305EC8F38C
:1003D0006F5FA8F30895EADF8D939D930895CF93FF
:1003E000CFB7CF93DF93C395839BE9F7839B0BC074
:1003F000839B09C0839B07C0839B05C0839B03C06D
:10040000839B01C089C06F93C0912301DD27C65D26
:10041000DE4F2F9365E5839B03C02F916F91E6CF4D
:100420000F931F934F9320E040E15F9300B30C7054
:1004300003FB27F93F9350E03BE039C01C70406458
:100440002F77012F5F5F1EC0406810B31C702F779D
:1004500052501FC0406400B32F770C70D1F15F5F22
:1004600000C023C0406210B32F771C7091F15F5F12
:1004700000C025C00C701027515012F45D5F0000C1
:10048000115027952C3F10B3C8F61C70012701505E
:1004900027952C3FC8F64227499300B30C701027CC
:1004A0004F73115027952C3FA8F64695469510B3EB
:1004B0001C7079F00127015027952C3F98F66B5A54
:1004C00060F3315000B3B0F600C011E018BF002750
:1004D00017C03B503195C31BD04011E018BF0881B5
:1004E000033CF9F00B34E9F0209121011981110F3F
:1004F0001213EDCF093651F10D3211F0013E39F7EB
:10050000009328013F915F914F911F910F912F917F
:100510006F91C8B7C0FD67CFDF91CF91CFBFCF91AB
:10052000189520912801222369F3109126011123A7
:1005300039F534303AF1309326012093220110919D
:1005400023013BE0311B309323011CC000912601A5
:100550000130B4F40AE53091010134FD14C0009378
:100560000101C6E1D1E013C0052710E000C0000082
:1005700002BB1AC0052710E0221F1DC010E021C0D9
:100580004AE502C032ED432FC4E1D0E032E011B3BE
:100590001C60939A02B311BB5CE020E865E320FF86
:1005A000052702BB279517951C3FF0F66695B8F70F
:1005B000B1F720FF052702BB279517951C3FD0F602
:1005C0002795179517FF052700001C3F02BBB0F6C3
:1005D00029913A9519F7037F10912701110FC65100
:1005E000D04002BB11F01093210111E018BF086048
:1005F00011B3137F402F437F54E05A95F1F702BBAC
:1006000011BB42BB7FCFDC01CB0121E1B695A795A1
:10061000979587952A95D1F7209146012817A9F03B
:10062000809346018FEF8ABBA898AB98AC98AD9A9F
:10063000809146018BBBAA9A8AE18A95F1F700C0A6
:10064000AA988AE18A95F1F700C008959FEF9ABBB6
:100650008BBBAB9AA898AC9880914401811101C0E2
:10066000AD9885E08A95F1F70000AA9A8AE18A950B
:10067000F1F700C0AA988AE18A95F1F700C00895C1
:10068000AB98A8986623C1F0AC9A9091440191115F
:1006900001C0AD989FEF9ABB8BBB8AE18A95F1F7B9
:1006A00000C0AA9A8AE18A95F1F700C0AA988AE167
:1006B0008A95F1F700C00895AC98E7CF97988FE33B
:1006C0009CE90197F1F700C00000979A0895AA9A53
:1006D0008AE18A95F1F700C0AA988AE18A95F1F734
:1006E00000C00895CF93DF9344E0849FD00111248C
:1006F00070E0660F771F660F771F1ABA2AE030E0A6
:10070000E0E0F0E0C1E0D0E01EC0A89AAB01092E05
:1007100002C0569547950A94E2F740FF24C0A99A73
:10072000AB9A85E08A95F1F70000AB98C89B08C0AA
:10073000AE0102C0440F551F9A95E2F7E42BF52B4A
:100740002150310990F055E05A95F1F70000922FB1
:10075000AD01022E02C0569547950A94E2F740FD7E
:10076000D4CFA898D3CFA998DBCFCF019695879502
:100770009695879596958795DF91CF91089587EC0B
:1007800090E00197F1F700C000008FEF9FE006C0F6
:1007900025E32A95F1F70000019719F0C89BF8CFDF
:1007A000089597988FE39CE90197F1F700C0000046
:1007B000979A089590914401923008F008950C940E
:1007C000260390914401923008F008950C94400360
:1007D000CF93C82F90914401923088F068E08CE468
:1007E0000E9472036C2F8CE00E94720360E088E626
:1007F0000E94720360E08CE6CF910C94720388E053
:100800000E94260380914401823020F460E08C2F06
:100810000E9440031ABAAE988FE99FE00197F1F762
:1008200000C0000089B3AE9ACF910895CF93979AF4
:10083000AA98A89AAB9A8FE39CE90197F1F700C0B8
:10084000000097988FE39CE90197F1F700C0000042
:10085000CAE0AA9A9AE19A95F1F700C0AA982AE10B
:100860002A95F1F700C0C150A1F7A998A898AB98B4
:10087000AC988FEF99EF20E0815090402040E1F755
:1008800000C00000979A8FEF90E722E081509040DF
:100890002040E1F700C000001092440180E00E9477
:1008A000E8038E3109F45DC096988FEF93EC29E050
:1008B000815090402040E1F700C00000A898AB981C
:1008C000AC98AF98AE9897988FEF99EF20E0815051
:1008D00090402040E1F700C00000969A8FE39CE929
:1008E0000197F1F700C00000979A9FEF29E688E191
:1008F000915020408040E1F700C00000AF9AAE9ACE
:1009000081E08093440180E00E94E8038E3149F148
:100910009698AB988FEF8ABBA998A898D898979883
:100920008FE39CE90197F1F700C00000969A979A2F
:100930009FEF29EF80E0915020408040E1F700C018
:1009400000001ABA8FEC97E00197F1F700C00000A1
:1009500082E08093440180E00E94E803C1E08E3190
:1009600019F08C2FCF910895C0E08C2FCF9108956E
:10097000CF93C82F843048F08BEAC89F812D112473
:100980008695982F990F890FC81B8091440182305A
:1009900098F164E08CE40E947203C13091F0CC23A2
:1009A000C9F0C23001F1C33019F080E0CF91089551
:1009B00060E088E70E94720360E08CE7CF910C94BE
:1009C000720360E088E60E94720360E08CE6CF91DB
:1009D0000C94720360E08AE70E94720360E08EE785
:1009E000CF910C94720360E08AE60E94720360E08B
:1009F0008EE6CF910C94720384E00E9426031ABA0B
:100A0000CC2399F0C130C1F4AC988091440181119C
:100A100023C0AD98AE988FE99FE00197F1F700C031
:100A2000000089B3AE9ACF910895AC9A80914401A9
:100A300081110AC0AD9AEECFC23041F4AC988091DA
:100A40004401811101C0AD9AAB9AE4CFAC9A809178
:100A50004401811101C0AD98AB98DCCFCF93DF93F7
:100A6000C82FD62F80914401823078F0C03A09F423
:100A70007FC0C83A09F47EC0C43A09F44AC0C03EF7
:100A800009F462C0DF91CF910895A9988091440143
:100A9000C03E09F452C0823008F490C025E32A9584
:100AA000F1F70000AB98A89ADBBB85E38A95F1F7D4
:100AB0000000AA9A9AE19A95F1F700C0AA982AE153
:100AC0002A95F1F700C0C03A09F46FC0C83A09F49A
:100AD00065C0C43A31F4AC988091440181116CC076
:100AE000AD9A85E38A95F1F70000AF988FE99FE012
:100AF0000197F1F700C00000AF9A9FEF21EE84E06C
:100B0000915020408040E1F700C00000DF91CF917C
:100B1000089560E48CE40E9472036D2F8CE20E94C1
:100B2000720360E086E60E94720360E08EE60E9437
:100B30007203DF91CF910C94BF03823008F0AECFE7
:100B400080E20E942603AACF60E28CE40E94720336
:100B50006D2F8CE20E94720360E084E60E947203B3
:100B600060E08CE60E947203DF91CF910C94BF038A
:100B700060E4EBCF60E48CE40E9472036D2F8CE2A2
:100B80000E94720360E084E70E94720360E08CE7D9
:100B90000E947203DF91CF910C94BF03AC9A8091B5
:100BA0004401811107C0AD989CCFAC98809144015D
:100BB0008823C9F3AB9895CFAB9A93CF80E40E947A
:100BC00026036CCF80914401823008F0089580E8BC
:100BD0000E942603AF988FE193E00197F1F700C0E0
:100BE0000000AF9A9FEF22E587E0915020408040BF
:100BF000E1F700C000000895089560E88CE40E94C9
:100C0000720360E084E60E94720360E08CE60E945A
:100C100072030C94BF0322B79091470182B7821BE5
:100C20008917E0F308958FEF85BB84BB1ABA81B3AF
:100C3000806C81BBAF9AAE9A1092460108951ABAA1
:100C400014BA9698979881B38F7381BB08958FEFEC
:100C500008958FEF08950C941604CF92DF92EF92CF
:100C6000FF926B017C01809144018230B0F162E01F
:100C70008CE40E947203C701B6019695879577951B
:100C800067958CE00E947203C701B60139E0969522
:100C90008795779567953A95D1F78CE10E94720315
:100CA00060E088E60E94720360E0C0FC0BC088E64A
:100CB0000E94720360E08CE6FF90EF90DF90CF908F
:100CC0000C94720388E70E94720360E08CE7FF9047
:100CD000EF90DF90CF900C94720382E00E94260385
:100CE000C701B6010E940303D701C60159E0B695BA
:100CF000A795979587955A95D1F720914401223071
:100D000090F01ABAC0FE0DC0AC9AAE9885E08A95F4
:100D1000F1F7000089B3AE9AFF90EF90DF90CF908B
:100D20000895AC98F2CF61E00E944003D701C6015C
:100D3000B695A7959795879520914401223008F79D
:100D400060E00E944003DDCFCF92DF92EF92FF92EE
:100D5000CF93DF931F92CDB7DEB76B017C018091FB
:100D600044018230A8F180914A0190E020914B012A
:100D700030914C018217930709F466C0C0FC0BC088
:100D80004093400180E00F90DF91CF91FF90EF9072
:100D9000DF90CF900895C701B60196958795779516
:100DA00067958CE049830E947203609140018CE258
:100DB0000E9472034981642F8CE30E94720360E0F9
:100DC0008DE70E94720360E08CE70E947203DACF25
:100DD00080914A0190E020914B0130914C018217A3
:100DE0009307C9F1C0FECCCFF694E794D794C7948B
:100DF0008C2D60E049830E9440034981A89AAB98FA
:100E0000809140018BBBAA9A8AE18A95F1F700C0D4
:100E1000AA988AE18A95F1F700C0AC9A4BBBAA9ACE
:100E20008AE18A95F1F700C0AA988AE18A95F1F7DC
:100E300000C0A99A85E08A95F1F70000A99885E09D
:100E40008A95F1F700009ECF60E18CE449830E940F
:100E50007203498193CF80E149830E94260349812F
:100E6000C0FE8ECF80914401823040F6BDCFCF923C
:100E7000DF92EF92FF926B017C01809144018230FE
:100E800020F1C701B60129E096958795779567957A
:100E90002A95D1F78CE10E94720360E084E60E94FB
:100EA000720360E08CE60E9472038FEF9CE701976B
:100EB000F1F700C0000060E08CE40E94720381E062
:100EC000FF90EF90DF90CF900895D701C60139E0F1
:100ED000B695A795979587953A95D1F761E00E94C9
:100EE0004003C701B6010E940303AF9885E08A95CD
:100EF000F1F70000AF9A8FEF9CE70197F1F700C080
:100F00000000AB9AA8981BBAAA9A9AE19A95F1F7B1
:100F100000C0AA988AE18A95F1F700C080E0FF90AE
:100F2000EF90DF90CF9008951F93CF93DF931F92A0
:100F3000CDB7DEB7182F209144012230D0F063E006
:100F40008CE499830E947203612F8CE00E947203EB
:100F50009981692F8CE10E94720360E088E60E940B
:100F6000720360E08CE60F90DF91CF911F910C949B
:100F7000720383E00E94260380914401823070F066
:100F80001ABAAC98AE9885E08A95F1F7000089B35B
:100F9000AE9A0F90DF91CF911F91089561E0812F5C
:100FA0000E94400380914401823050F760E0812F1D
:100FB0000E944003E5CF1F93CF93DF93209144011C
:100FC000223008F1C62FD92F182F61E18CE40E943E
:100FD0007203612F8CE00E9472036D2F8CE10E94DE
:100FE00072036C2F8CE20E94720360E08DE60E9417
:100FF000720360E084E60E94720360E08CE60E9467
:1010000072030E94BF0380E0DF91CF911F9108958A
:101010001F93CF93DF938823A9F0182FD0E0C2B796
:1010200062B76C1B70E080E090E00E94370C20E01B
:1010300030E040EA52E40E94300C87FDF1CFDF5FE0
:10104000D113EDCFDF91CF911F910895BD9ABB9839
:10105000C39A50E217D05A95E9F70895AC0188E693
:1010600005D0842F03D089E601D0852F0FD028E04A
:1010700030E0382780FB869506D02A95D1F730FBE3
:1010800002D000D06894BB98C39A16F0C398BB9A5C
:10109000E0914801F09149013197F0F7C59AE6B324
:1010A000E3FBE0914801F09149013197F0F7C598D1
:1010B000089520ECE7DF46F42A95E1F780E02AE185
:1010C000E5DF2A95E9F7DECF28E030E0DBDF869523
:1010D00087F938272A95D1F7D5DF27F9322772F318
:1010E000D1DFD0CFDB01742FB9DF84E2BFDFE1DFD6
:1010F0008D937A95D1F70895DB01742FAFDF83EFDD
:10110000B5DF8DE1B3DF84E6B1DF8D91AFDF82E73C
:10111000ADDFCFDF8078D9F77A9589F70895FC01A4
:101120009181913089F1923009F4BDC0933009F476
:1011300069C09430E1F1973009F48AC0953009F420
:1011400058C1963009F4B4C0983009F4FBC0993006
:1011500009F463C19A3009F492C19B3009F4C6C105
:101160009C3009F4DBC19D3009F4F2C19E3009F4D2
:10117000F5C19F3009F462C1903109F48BC19F37EA
:1011800009F4A9C180E037C0B39B5EC080910C0117
:101190000E94FD0510920B01C09A0E94130680E088
:1011A0002EE031E0309325012093240108958091B1
:1011B0000B01811112C0838190E0982F8827228132
:1011C000822B092E000CAA0BBB0B80930701909376
:1011D0000801A0930901B0930A01878190E0982F3C
:1011E00088272681822B909306018093050182E057
:1011F00080930D018FEF2EE031E030932501209395
:10120000240108958281803509F4D1C008F48AC090
:10121000883509F4DCC08C3A09F0BFC010920E0189
:1012200080930F0183818093100184818093110149
:101230008381833509F4DBC0803809F427C16581D7
:101240000E942E0584E0D7CF85E00E94FD05A2CF45
:1012500080910B01811112C0838190E0982F882723
:101260002281822B092E000CAA0BBB0B8093070155
:1012700090930801A0930901B0930A01878190E03F
:10128000982F88272681822B909306018093050151
:1012900083E080930D018FEF2EE031E03093250144
:1012A0002093240108950E941F06C09880E0A3CFD8
:1012B00080910B01811112C0838190E0982F8827C3
:1012C0002281822B092E000CAA0BBB0B80930701F5
:1012D00090930801A0930901B0930A0134812581FC
:1012E000822F8F7080930401822F807F40E1849F42
:1012F000C0011124830F911D90934C0180934B01E9
:1013000020FD80934A01878190E0982F88272681CD
:10131000822B909306018093050181E080930D015B
:101320008FEF69CF8033C9F510920E0180930F01C2
:1013300010921001848183700E94E8038093110150
:1013400084E059CF80910B01811112C0838190E01C
:10135000982F88272281822B092E000CAA0BBB0B09
:101360008093070190930801A0930901B0930A01AB
:1013700010924C0110924B0110920401878190E071
:10138000982F88272681822B909306018093050150
:1013900084E080930D018FEF2ECF10920E011092FA
:1013A0000F01109210011092110184E024CF93815B
:1013B00010920E0180930F01109210019830F9F0F5
:1013C00081E00E94B8048093110184E014CF9381DE
:1013D00010920E0180930F01109210019830B1F01D
:1013E00083E00E94B8048093110184E004CF84E07C
:1013F00002CF0E942B0680930E0181E0FCCE82E09A
:101400000E94B8048093110184E0F5CE80E00E9430
:10141000B8048093110184E0EECE81E080930B014B
:1014200082819381A481B581809307019093080103
:10143000A0930901B0930A0180E0DDCE838190E0A2
:10144000982F88272281822B092E000CAA0BBB0B18
:101450008093070190930801A0930901B0930A01BA
:10146000878190E0982F88272681822B9093060110
:101470008093050185E080930D018FEFBCCE8281C2
:1014800080930C0110920E0181E0B5CE0E94E2051E
:1014900084E0B1CE838190E0982F88272281822B2F
:1014A000092E000CAA0BBB0B809307019093080137
:1014B000A0930901B0930A01878190E0982F8827B3
:1014C0002681822B909306018093050186E080930C
:1014D0000D018FEF90CE81E080930E0110920F01ED
:1014E000109210011092110184E085CE838190E06A
:1014F000982F88272281822B90934901809348015D
:10150000C49ABC9A83E00E940808C498C09A80E1FB
:101510000E9408080E94260880E06DCE80EC0E94A0
:10152000360880E00E9436088AE00E940808C49AC3
:1015300085E00E940808C49885E00E94080887B3E7
:101540008F7487BB88B38F7488BBC09880E053CEFC
:101550000E94590880930E0181E04DCE82810E9445
:10156000360880E048CEFF920F931F93CF93DF930E
:10157000582F792FF62E20910D013EEF320F323089
:1015800050F0253009F454C08FEFDF91CF911F91B7
:101590000F91FF900895662309F441C080910701DF
:1015A00090910801A0910901B0910A01052F172F10
:1015B0003FEF360FE801C30FD11D1EC00E949407F4
:1015C000F80180838091070190910801A0910901A1
:1015D000B0910A010196A11DB11D8093070190935E
:1015E0000801A0930901B0930A010C171D0769F0C7
:1015F00020910D010F5F1F4F223001F7BC01CD017B
:101600000E942D06F8018083DDCFF7E0FF1538F446
:101610008F2DDF91CF911F910F91FF900895109220
:101620000D018F2DDF91CF911F910F91FF900895A4
:10163000462F682F80910701909108010E9472083F
:101640008091070190910801A0910901B0910A01D0
:101650008F0D911DA11DB11D80930701909308016D
:10166000A0930901B0930A018F2D8FCFFF920F93A2
:101670001F93CF93DF93382F792F162F20910D01D1
:10168000213061F0243051F0263009F499C08FEFF9
:10169000DF91CF911F910F91FF900895112309F4CD
:1016A00087C08091070190910801A0910901B09134
:1016B0000A01C32FD72F1150AE01410F511D8A01CE
:1016C000F12C4FC020914B0130914C01232B09F09C
:1016D00052C021E04881BC01CD010E94A4062091A6
:1016E0000501309106012150310930930601209304
:1016F0000501232BE9F410920D018091040181FF73
:1017000037C080914A0190E020914B0130914C010B
:101710008217930769F16091070170910801809128
:10172000090190910A0148810E943707FF24F39430
:101730008091070190910801A0910901B0910A01DF
:101740000196A11DB11D8093070190930801A093FC
:101750000901B0930A01C017D10759F120910D0179
:101760002196213009F4AECF68810E94DB07B7CF04
:10177000FF24F394DDCF20E04881BC01CD010E941D
:10178000A40680914A01815080934A018111A7CF1C
:1017900060910701709108018091090190910A01FF
:1017A00048810E94370780914B0180934A0197CF6F
:1017B000F12C8F2DDF91CF911F910F91FF90089504
:1017C000462F682F80910701909108010E947C08A4
:1017D0008091070190910801A0910901B0910A013F
:1017E000810F911DA11DB11D8093070190930801E8
:1017F000A0930901B0930A0180910501909106011F
:10180000811B91099093060180930501892B21F496
:1018100010920D0181E03CCF80E03ACF88B38C7FFD
:1018200088BB8B9A8FEFA895EFE9FFE03197F1F72E
:1018300000C000008150B9F78B9887B3836087BBE5
:10184000C39A0895C1980895C19A08950E94CD0140
:101850000E940E0C83E083BF78940E948E00FDCF1F
:101860000E94720C08F481E00895E89409C097FB87
:101870003EF490958095709561957F4F8F4F9F4F67
:101880009923A9F0F92F96E9BB279395F6958795AB
:1018900077956795B795F111F8CFFAF4BB0F11F46E
:1018A00060FF1BC06F5F7F4F8F4F9F4F16C0882315
:1018B00011F096E911C0772321F09EE8872F762F4B
:1018C00005C0662371F096E8862F70E060E02AF08C
:1018D0009A95660F771F881FDAF7880F9695879578
:1018E00097F90895990F0008550FAA0BE0E8FEEF4D
:1018F00016161706E807F907C0F012161306E407D4
:10190000F50798F0621B730B840B950B39F40A26CC
:1019100061F0232B242B252B21F408950A2609F4AA
:10192000A140A6958FEF811D811D0895F894FFCFEA
:02193000FF5A5C
:00000001FF
