:100000000C9453000C94D1010C9470000C9470006B
:100010000C9470000C9470000C9470000C947000A0
:100020000C9470000C9470000C9470000C94700090
:100030000C9470000C9470000C9470000C94700080
:100040000C9470000C9470000C9470000C94700070
:100050000C947000090212000101008019090400CB
:1000600000000000000012011001FF000008C0168F
:10007000DC050401010200010E035500530042009B
:100080006100730070001C037700770077002E007A
:10009000660069007300630068006C002E00640055
:1000A00065000403090411241FBECFE5D4E0DEBFC0
:1000B000CDBF10E0A0E6B0E0E2E7F3E102C00590BA
:1000C0000D92A236B107D9F720E0A2E6B0E001C058
:1000D0001D92AC3AB207E1F70E9442090C94B709AD
:1000E0000C940000CF93DF9360918900635067FD0B
:1000F00014C0209186008CE090E0821B9109EC01F5
:10010000C357DF4F809185008D3209F468C080911C
:10011000630087FDABC0109289008091610084FF6D
:1001200040C0609160006F3F09F43BC0693008F443
:100130007EC06850609360009091790088E88927BC
:100140008093790068E08091630087FD1CC0209156
:1001500087003091880086FF80C0AAE7B0E0F901EF
:10016000962F84918D9331969150D9F78FEF860F0A
:1001700090E00196280F391F309388002093870064
:10018000C4E0C60F5FC08AE790E00E94CF07682FE7
:10019000893008F4B5C08FEF80936000CEE1C09342
:1001A000610094E180B38C7081F49150D9F7109282
:1001B0008A001092840080916200813019F0C1E0C1
:1001C000C0936200DF91CF910895C1E09111C0E02A
:1001D00080916200C817B1F30E943E09F1CF6830E8
:1001E00009F099CF83EC809379008AE580936100D0
:1001F000109263008881807609F043C08A81109252
:1002000082009981911149C01092830022E830E068
:1002100082E030938800209387009F81911104C071
:100220009E81981708F4892F8093600074CF1092F4
:1002300060009091790088E88927809379006111A6
:1002400082CFC4E08AE790E00E94CD01CC3009F46F
:10025000A6CF8FEF80936000A2CFD901EAE7F0E04C
:10026000962F8D9181939150E1F780CFCE010E941E
:1002700052088F3F09F1882309F44DCF1092600096
:100280004ACFCE010E9401068F3F39F6988197FD33
:1002900017C090E890936300C7CF9530E9F096308F
:1002A00019F1983079F0993089F081E09A3009F0AD
:1002B00080E022E830E0ADCF8EE1809361002BCF6B
:1002C0008E81E7CF2CE830E081E0A3CF80938C00D3
:1002D00022E830E080E09DCF80938A000E944009B0
:1002E00022E830E080E095CF9B819130F1F09230B0
:1002F000A1F0933041F080E090E4909363008DCFC3
:10030000C4E0C80F9FCF811118C082EA90E090939B
:1003100088008093870084E0EFCF84E590E090939D
:1003200088008093870082E1E7CF86E690E0909393
:1003300088008093870082E1DFCF813051F08230E6
:10034000D1F688E790E090938800809387008EE054
:10035000D3CF86E890E090938800809387008CE16B
:10036000CBCF85B7836085BF8BB780648BBF089583
:10037000A82FB92F80E090E041E050EA609530E08E
:1003800009C02D9182279795879510F0842795278E
:10039000305EC8F36F5FA8F30895EADF8D939D93F5
:1003A0000895CF93CFB7CF93DF93C395839BE9F79E
:1003B000839B0BC0839B09C0839B07C0839B05C0A5
:1003C000839B03C0839B01C089C06F93C09186004B
:1003D000DD27C357DF4F2F9365E5839B03C02F9124
:1003E0006F91E6CF0F931F934F9320E040E15F930F
:1003F00000B30C7003FB27F93F9350E03BE039C09A
:100400001C7040642F77012F5F5F1EC0406810B3DF
:100410001C702F7752501FC0406400B32F770C70B0
:10042000D1F15F5F00C023C0406210B32F771C7012
:1004300091F15F5F00C025C00C701027515012F47D
:100440005D5F0000115027952C3F10B3C8F61C705B
:100450000127015027952C3FC8F64227499300B346
:100460000C7010274F73115027952C3FA8F6469516
:10047000469510B31C7079F00127015027952C3F49
:1004800098F66B5A60F3315000B3B0F600C010E438
:100490001ABF002717C03B503195C31BD04010E452
:1004A0001ABF0881033CF9F00B34E9F02091840075
:1004B0001981110F1213EDCF093651F10D3211F0E0
:1004C000013E39F700938B003F915F914F911F914F
:1004D0000F912F916F91CAB7C6FD67CFDF91CF9172
:1004E000CFBFCF91189520918B00222369F31091F3
:1004F0008900112339F534303AF130938900209383
:100500008500109186003BE0311B309386001CC0B3
:10051000009189000130B4F40AE53091610034FDA6
:1005200014C000936100C9E7D0E013C0052710E0B4
:1005300000C0000002BB1AC0052710E0221F1DC02A
:1005400010E021C04AE502C032ED432FC4E1D0E003
:1005500032E011B31C60939A02B311BB5CE020E857
:1005600065E320FF052702BB279517951C3FF0F692
:100570006695B8F7B1F720FF052702BB27951795B9
:100580001C3FD0F62795179517FF052700001C3F45
:1005900002BBB0F629913A9519F7037F10918A00B2
:1005A000110FC651D04002BB11F01093840010E42B
:1005B0001ABF086011B3137F402F437F54E05A9550
:1005C000F1F702BB11BB42BB7FCF582F48E080E060
:1005D00057FD18C0C598550F880FB6998F5FC79AF9
:1005E00032B72091A80092B7931B9217E0F3C798F7
:1005F00032B72091A80092B7931B9217E0F34150B5
:1006000039F70895C59AE7CF8FB9779BFECF8FB1A1
:100610000895DC01CB0121E1B695A79597958795C3
:100620002A95D1F72091A7002817D9F08093A70029
:10063000E091A400F091A5008DE40995E091A4005B
:10064000F091A50080E00995E091A400F091A5004B
:100650008091A7000995E091A400F091A50080E0A9
:10066000099408958091A6008DB98091A3008EB958
:1006700008958823A1F08830D0F525EE32E030933C
:10068000A5002093A4008430F1F008F18630C1F079
:1006900030F18730A1F483E08093A800089584E0CE
:1006A00093E09093A5008093A40081E08093A8003C
:1006B00082E58093A60081E08093A300089580ECFA
:1006C0008093A800089588E18093A800089582305F
:1006D00051F08330A1F780E38093A80008958CE067
:1006E0008093A800089580E68093A800089524E0F0
:1006F00033E03093A5002093A4001092A30091E072
:100700009093A800893059F070F08B3021F08C3034
:1007100079F69093A30081E58093A600089582E581
:100720008093A6000895883019F683E58093A6008B
:10073000089522B79091A80082B7821B8917E0F331
:10074000089587B3806B87BBC498C79822B79091F0
:10075000A80082B7821B8917E0F3C49A22B7909150
:10076000A80082B7821B8917E0F3C4988091A40087
:100770009091A5008450934019F01092A70008951D
:100780008091A6008DB98091A3008EB91092A70028
:10079000089587B38F7487BB88B38F7488BB1DB8E7
:1007A0000895CF93DF93C0E2E091A400F091A500FB
:1007B0008CEA0995E091A400F091A50083E50995E4
:1007C000E091A400F091A50080E00995D82FE09178
:1007D000A400F091A50080E00995D33561F11DB822
:1007E00022B79091A80082B7821B8917E0F3C49AC0
:1007F00022B79091A80082B7821B8917E0F3C498B2
:1008000022B79091A80082B7821B8917E0F38091EC
:10081000A4009091A5008450934031F0C15021F67E
:1008200081E0DF91CF9108958091A6008DB98091EC
:10083000A3008EB9F3CF80E0DF91CF910895CF92DE
:10084000DF92EF92FF926B017C010E9409038C2DD5
:100850008170880F880F880FE091A400F091A500A7
:1008600080620995D701C60129E0B695A7959795AD
:1008700087952A95D1F7E091A400F091A5000995FC
:10088000D701C601B695A79597958795E091A400E5
:10089000F091A5000995E091A400F091A50080E0F9
:1008A000FF90EF90DF90CF900994CF92DF92EF927C
:1008B000FF920F931F93CF93DF931F92CDB7DEB7B5
:1008C0006B017C01142F29830E9409039C2D9170D8
:1008D000892F880F880F880FE091A400F091A50060
:1008E00080640995D701C60129E0B695A79597952B
:1008F00087952A95D1F7E091A400F091A50009957C
:10090000D701C601B695A79597958795E091A40064
:10091000F091A5000995E091A400F091A500812F28
:1009200009952981222319F11F37F1F002B71EE141
:10093000C701B6010E941F048F37C9F482B7801B1C
:10094000682F70E080E090E00E94530920E030E0E2
:1009500040EA52E40E94B209181614F402B711508A
:100960001111E6CF81E004C08FE00E947A0580E09B
:100970000F90DF91CF911F910F91FF90EF90DF903B
:10098000CF900895CF92DF92EF92FF920F931F9333
:10099000CF93DF931F92CDB7DEB76B017C01498304
:1009A0000E940903E091A400F091A5008CE4099550
:1009B000D701C60129E0B695A795979587952A9501
:1009C000D1F7E091A400F091A5000995D701C601E7
:1009D000B695A79597958795E091A400F091A5000D
:1009E0000995E091A400F091A50080E00995498166
:1009F0004F3F49F102B71EE1C701B6010E941F0433
:100A00008F3FF9F482B7801B682F70E080E090E0A0
:100A10000E94530920E030E040EA52E40E94B2090B
:100A2000181614F402B711501111E6CF81E00F909F
:100A3000DF91CF911F910F91FF90EF90DF90CF90BA
:100A4000089580E0F4CF8FE00E947A0580E0EFCF38
:100A50001F93CF93DF931F92CDB7DEB7182FE0918E
:100A6000A400F091A50080EA99830995E091A40083
:100A7000F091A5009981892F0995E091A400F0914A
:100A8000A500812F0995E091A400F091A50080E0D8
:100A90000F90DF91CF911F9109941F93CF93DF9314
:100AA00000D0CDB7DEB7182FE091A400F091A500DB
:100AB00080EC6A8399830995E091A400F091A500E8
:100AC0009981892F0995E091A400F091A500812FCB
:100AD0000995E091A400F091A5006A81862F0995FF
:100AE0008EE10E947A0580E00F900F90DF91CF9108
:100AF0001F9108951F93CF93DF938823A9F0182F98
:100B0000D0E0C2B762B76C1B70E080E090E00E945A
:100B1000530920E030E040EA52E40E944C0987FD8E
:100B2000F1CFDF5FD113EDCFDF91CF911F9108950A
:100B3000BD9ABB98C39A50E217D05A95E9F7089529
:100B4000AC0188E605D0842F03D089E601D0852F3B
:100B50000FD028E030E0382780FB869506D02A9514
:100B6000D1F730FB02D000D06894BB98C39A16F03E
:100B7000C398BB9AE091AA00F091AB003197F0F7CF
:100B8000C59AE6B3E3FBE091AA00F091AB00319780
:100B9000F0F7C598089520ECE7DF46F42A95E1F7D1
:100BA00080E02AE1E5DF2A95E9F7DECF28E030E0B2
:100BB000DBDF869587F938272A95D1F7D5DF27F926
:100BC000322772F3D1DFD0CFDB01742FB9DF84E29B
:100BD000BFDFE1DF8D937A95D1F70895DB01742FA4
:100BE000AFDF83EFB5DF8DE1B3DF84E6B1DF8D9159
:100BF000AFDF82E7ADDFCFDF8078D9F77A9589F76D
:100C00000895CF93DF93EC019981913089F192306F
:100C100009F4B3C0933009F465C09430B1F1973052
:100C200009F486C0953009F412C1963009F4AAC0BF
:100C3000983009F4E1C0993009F40FC19A3009F4F1
:100C40003EC19B3009F46EC19C3009F483C19D30D4
:100C500009F49AC19E3009F49DC19F3009F40EC178
:100C6000903109F433C19F3709F451C180E031C09C
:100C7000B39B5AC080916F000E94390310926E009E
:100C8000C09A0E94A10380E024C080916E0081116F
:100C900012C08B8190E0982F88272A81822B092E01
:100CA000000CAA0BBB0B80936A0090936B00A0937F
:100CB0006C00B0936D008F8190E0982F88272E8173
:100CC000822B909369008093680082E0809370008B
:100CD0008FEF21E730E03093880020938700DF9189
:100CE000CF910895E091A400F091A5008A81099523
:100CF00080937100E091A400F091A5008B8109958B
:100D000080937200E091A400F091A5008C81099578
:100D100080937300E091A400F091A5008D81099566
:100D20008093740084E0D5CF85E00E943903A6CF7C
:100D300080916E00811112C08B8190E0982F8827DE
:100D40002A81822B092E000CAA0BBB0B80936A0010
:100D500090936B00A0936C00B0936D008F8190E036
:100D6000982F88272E81822B9093690080936800AA
:100D700083E0809370008FEFACCF0E94C903C098CE
:100D800080E0A7CF80916E00811112C08B8190E02E
:100D9000982F88272A81822B092E000CAA0BBB0BC7
:100DA00080936A0090936B00A0936C00B0936D00E9
:100DB0003C812D81822F8F7080936500822F807FF0
:100DC00040E1849FC0011124830F911D909367001F
:100DD0008093660020FD809364008F8190E0982FBF
:100DE00088272E81822B909369008093680081E090
:100DF000809370008FEF6DCF80916E00811112C0D3
:100E00008B8190E0982F88272A81822B092E000C55
:100E1000AA0BBB0B80936A0090936B00A0936C00AD
:100E2000B0936D00109267001092660010926500FA
:100E30008F8190E0982F88272E81822B90936900D4
:100E40008093680084E0809370008FEF42CF0E940F
:100E5000D1038093710081E03CCF81E080936E00EC
:100E60008A819B81AC81BD8180936A0090936B00E5
:100E7000A0936C00B0936D0080E02BCF8B8190E04D
:100E8000982F88272A81822B092E000CAA0BBB0BD6
:100E900080936A0090936B00A0936C00B0936D00F8
:100EA0008F8190E0982F88272E81822B9093690064
:100EB0008093680085E0809370008FEF0ACF8A816D
:100EC00080936F001092710081E003CF8B8190E0DE
:100ED000982F88272A81822B092E000CAA0BBB0B86
:100EE00080936A0090936B00A0936C00B0936D00A8
:100EF0008F8190E0982F88272E81822B9093690014
:100F00008093680086E0809370008FEFE2CE81E0EE
:100F1000809371001092720010927300109274000E
:100F200084E0D7CE8B8190E0982F88272A81822B6E
:100F30009093AB008093AA00C49ABC9A83E00E946D
:100F40007A05C498C09A80E10E947A050E949805AB
:100F500080E0BFCE80EC0E94A80580E00E94A8053A
:100F60008AE00E947A05C49A85E00E947A05C498B6
:100F700085E00E947A0587B38F7487BB88B38F742E
:100F800088BBC09880E0A5CE0E94CB0580937100FD
:100F900081E09FCE8A810E94A80580E09ACEFF92D0
:100FA0000F931F93CF93DF93582F792FF62E209115
:100FB00070003EEF320F323050F0253009F454C04B
:100FC0008FEFDF91CF911F910F91FF9008956623CE
:100FD00009F441C080916A0090916B00A0916C006F
:100FE000B0916D00052F172F3FEF360FE801C30FAB
:100FF000D11D1EC00E942805F801808380916A00DF
:1010000090916B00A0916C00B0916D000196A11DB4
:10101000B11D80936A0090936B00A0936C00B09315
:101020006D000C171D0769F0209170000F5F1F4FB6
:10103000223001F7BC01CD010E941F04F80180831A
:10104000DDCFF7E0FF1538F48F2DDF91CF911F91A1
:101050000F91FF900895109270008F2DDF91CF9126
:101060001F910F91FF900895462F682F80916A007D
:1010700090916B000E94E40580916A0090916B0052
:10108000A0916C00B0916D008F0D911DA11DB11D3F
:1010900080936A0090936B00A0936C00B0936D00F6
:1010A0008F2D8FCFFF920F931F93CF93DF93382F06
:1010B000792F162F20917000213061F0243051F0EB
:1010C000263009F499C08FEFDF91CF911F910F91D6
:1010D000FF900895112309F487C080916A009091D0
:1010E0006B00A0916C00B0916D00C32FD72F1150F1
:1010F000AE01410F511D8A01F12C4FC020916600B5
:1011000030916700232B09F052C021E04881BC01D7
:10111000CD010E9455042091680030916900215052
:1011200031093093690020936800232BE9F4109271
:1011300070008091650081FF37C08091640090E06D
:1011400020916600309167008217930769F16091E2
:101150006A0070916B0080916C0090916D004881E5
:101160000E94C204FF24F39480916A0090916B0066
:10117000A0916C00B0916D000196A11DB11D8093EE
:101180006A0090936B00A0936C00B0936D00C01741
:10119000D10759F1209170002196213009F4AECF8A
:1011A00068810E944D05B7CFFF24F394DDCF20E086
:1011B0004881BC01CD010E9455048091640081509A
:1011C000809364008111A7CF60916A0070916B00D9
:1011D00080916C0090916D0048810E94C2048091C2
:1011E00066008093640097CFF12C8F2DDF91CF9113
:1011F0001F910F91FF900895462F682F80916A00EC
:1012000090916B000E94EE0580916A0090916B00B6
:10121000A0916C00B0916D00810F911DA11DB11DB9
:1012200080936A0090936B00A0936C00B0936D0064
:101230008091680090916900811B910990936900E9
:1012400080936800892B21F41092700081E03CCFDC
:1012500080E03ACF88B38C7F88BB8B9A8FEFA895BC
:10126000EFE9FFE03197F1F700C000008150B9F7D6
:101270008B9887B3836087BBC39A0895C1980895FC
:10128000C19A08950E94B1010E942A0983E083BF98
:1012900078940E947200FDCF0E948E0908F481E0CC
:1012A0000895E89409C097FB3EF490958095709559
:1012B00061957F4F8F4F9F4F9923A9F0F92F96E9A2
:1012C000BB279395F695879577956795B795F11117
:1012D000F8CFFAF4BB0F11F460FF1BC06F5F7F4FB4
:1012E0008F4F9F4F16C0882311F096E911C07723C6
:1012F00021F09EE8872F762F05C0662371F096E8CF
:10130000862F70E060E02AF09A95660F771F881F9D
:10131000DAF7880F9695879597F90895990F000841
:10132000550FAA0BE0E8FEEF16161706E807F907B7
:10133000C0F012161306E407F50798F0621B730B52
:10134000840B950B39F40A2661F0232B242B252BD3
:1013500021F408950A2609F4A140A6958FEF811D76
:10136000811D08950E948E0908F48FEF0895F89466
:02137000FFCFAD
:02137200FF5A20
:00000001FF
